{"abi":[{"type":"constructor","inputs":[{"name":"priceFeed_","type":"address","internalType":"address"},{"name":"grid_","type":"address","internalType":"address"},{"name":"gdUSD_","type":"address","internalType":"address"}],"stateMutability":"nonpayable"},{"type":"function","name":"LIQ_BONUS_BPS","inputs":[],"outputs":[{"name":"","type":"uint256","internalType":"uint256"}],"stateMutability":"view"},{"type":"function","name":"LIQ_THRESHOLD_BPS","inputs":[],"outputs":[{"name":"","type":"uint256","internalType":"uint256"}],"stateMutability":"view"},{"type":"function","name":"STAKE_LTV_BPS","inputs":[],"outputs":[{"name":"","type":"uint256","internalType":"uint256"}],"stateMutability":"view"},{"type":"function","name":"addSupportedToken","inputs":[{"name":"token","type":"address","internalType":"address"}],"outputs":[],"stateMutability":"nonpayable"},{"type":"function","name":"gdUSD","inputs":[],"outputs":[{"name":"","type":"address","internalType":"contract GridToken"}],"stateMutability":"view"},{"type":"function","name":"getAvailableGridTokens","inputs":[{"name":"user","type":"address","internalType":"address"},{"name":"token","type":"address","internalType":"address"}],"outputs":[{"name":"","type":"uint256","internalType":"uint256"}],"stateMutability":"view"},{"type":"function","name":"getCollateralValue","inputs":[{"name":"user","type":"address","internalType":"address"},{"name":"token","type":"address","internalType":"address"}],"outputs":[{"name":"usdcValue","type":"uint256","internalType":"uint256"}],"stateMutability":"view"},{"type":"function","name":"getHealthFactor","inputs":[{"name":"user","type":"address","internalType":"address"},{"name":"token","type":"address","internalType":"address"}],"outputs":[{"name":"","type":"uint256","internalType":"uint256"}],"stateMutability":"view"},{"type":"function","name":"grid","inputs":[],"outputs":[{"name":"","type":"address","internalType":"contract xStocksGrid"}],"stateMutability":"view"},{"type":"function","name":"liquidate","inputs":[{"name":"user","type":"address","internalType":"address"},{"name":"token","type":"address","internalType":"address"}],"outputs":[],"stateMutability":"nonpayable"},{"type":"function","name":"owner","inputs":[],"outputs":[{"name":"","type":"address","internalType":"address"}],"stateMutability":"view"},{"type":"function","name":"positions","inputs":[{"name":"","type":"address","internalType":"address"},{"name":"","type":"address","internalType":"address"}],"outputs":[{"name":"collateral","type":"uint256","internalType":"uint256"},{"name":"gridTokensMinted","type":"uint256","internalType":"uint256"}],"stateMutability":"view"},{"type":"function","name":"priceFeed","inputs":[],"outputs":[{"name":"","type":"address","internalType":"contract PriceFeed"}],"stateMutability":"view"},{"type":"function","name":"removeSupportedToken","inputs":[{"name":"token","type":"address","internalType":"address"}],"outputs":[],"stateMutability":"nonpayable"},{"type":"function","name":"renounceOwnership","inputs":[],"outputs":[],"stateMutability":"nonpayable"},{"type":"function","name":"setPriceFeed","inputs":[{"name":"pf","type":"address","internalType":"address"}],"outputs":[],"stateMutability":"nonpayable"},{"type":"function","name":"stake","inputs":[{"name":"token","type":"address","internalType":"address"},{"name":"amount","type":"uint256","internalType":"uint256"}],"outputs":[{"name":"gridTokensMinted","type":"uint256","internalType":"uint256"}],"stateMutability":"nonpayable"},{"type":"function","name":"supportedTokens","inputs":[{"name":"","type":"address","internalType":"address"}],"outputs":[{"name":"","type":"bool","internalType":"bool"}],"stateMutability":"view"},{"type":"function","name":"transferOwnership","inputs":[{"name":"newOwner","type":"address","internalType":"address"}],"outputs":[],"stateMutability":"nonpayable"},{"type":"function","name":"unstake","inputs":[{"name":"token","type":"address","internalType":"address"},{"name":"gridTokenAmount","type":"uint256","internalType":"uint256"}],"outputs":[{"name":"collateralOut","type":"uint256","internalType":"uint256"}],"stateMutability":"nonpayable"},{"type":"event","name":"Liquidated","inputs":[{"name":"user","type":"address","indexed":true,"internalType":"address"},{"name":"token","type":"address","indexed":true,"internalType":"address"},{"name":"liquidator","type":"address","indexed":true,"internalType":"address"},{"name":"collateralSeized","type":"uint256","indexed":false,"internalType":"uint256"},{"name":"gridTokensRepaid","type":"uint256","indexed":false,"internalType":"uint256"}],"anonymous":false},{"type":"event","name":"OwnershipTransferred","inputs":[{"name":"previousOwner","type":"address","indexed":true,"internalType":"address"},{"name":"newOwner","type":"address","indexed":true,"internalType":"address"}],"anonymous":false},{"type":"event","name":"Staked","inputs":[{"name":"user","type":"address","indexed":true,"internalType":"address"},{"name":"token","type":"address","indexed":true,"internalType":"address"},{"name":"collateralAmount","type":"uint256","indexed":false,"internalType":"uint256"},{"name":"gridTokensMinted","type":"uint256","indexed":false,"internalType":"uint256"}],"anonymous":false},{"type":"event","name":"TokenAdded","inputs":[{"name":"token","type":"address","indexed":true,"internalType":"address"}],"anonymous":false},{"type":"event","name":"TokenRemoved","inputs":[{"name":"token","type":"address","indexed":true,"internalType":"address"}],"anonymous":false},{"type":"event","name":"Unstaked","inputs":[{"name":"user","type":"address","indexed":true,"internalType":"address"},{"name":"token","type":"address","indexed":true,"internalType":"address"},{"name":"collateralReturned","type":"uint256","indexed":false,"internalType":"uint256"},{"name":"gridTokensBurned","type":"uint256","indexed":false,"internalType":"uint256"}],"anonymous":false},{"type":"error","name":"OwnableInvalidOwner","inputs":[{"name":"owner","type":"address","internalType":"address"}]},{"type":"error","name":"OwnableUnauthorizedAccount","inputs":[{"name":"account","type":"address","internalType":"address"}]},{"type":"error","name":"ReentrancyGuardReentrantCall","inputs":[]},{"type":"error","name":"SafeERC20FailedOperation","inputs":[{"name":"token","type":"address","internalType":"address"}]}],"bytecode":{"object":"0x6080346101ec57601f61149e38819003918201601f19168301916001600160401b038311848410176101f0578084926060946040528339810103126101ec5761004781610204565b90610060604061005960208401610204565b9201610204565b9033156101d9575f8054336001600160a01b0319821681178355604051959290916001600160a01b0316907f8be0079c531659141344cd1fd0a4f28419497f9722a3daafe3b4186f6b6457e09080a360017f9b779b17422d0df92223018b32b4d1fa46e071723d6817e2486d003becc55f00556001600160a01b03169283156101a657506001600160a01b0316908115610175576001600160a01b03169182156101435760018060a01b0319600154161760015560018060a01b0319600354161760035560018060a01b0319600254161760025560405161128590816102198239f35b60405162461bcd60e51b815260206004820152600a6024820152691e995c9bc819d91554d160b21b6044820152606490fd5b60405162461bcd60e51b81526020600482015260096024820152681e995c9bc819dc9a5960ba1b6044820152606490fd5b62461bcd60e51b815260206004820152600e60248201526d1e995c9bc81c1c9a58d95199595960921b6044820152606490fd5b631e4fbdf760e01b5f525f60045260245ffd5b5f80fd5b634e487b7160e01b5f52604160045260245ffd5b51906001600160a01b03821682036101ec5756fe6080806040526004361015610012575f80fd5b5f905f3560e01c9081631c6e812214610d36575080631eee3aa314610c4357806340b17b9b14610c275780634bd2144514610bcc57806357c89a7d14610ba057806368c4ac2614610b635780636d69fcaf14610afb578063715018a614610aa4578063724e78da14610a2d578063741bef1a14610a0557806376319190146109a057806386b9d81f146106d65780638da5cb5b146106af578063a23836ef14610686578063adc9772e14610403578063c2a672e0146101f1578063e3513531146101d4578063e3cd32d6146101b7578063ef133e51146101825763f2fde38b146100fa575f80fd5b3461017f57602036600319011261017f57610113610d59565b61011b611092565b6001600160a01b0316801561016b5781546001600160a01b03198116821783556001600160a01b03167f8be0079c531659141344cd1fd0a4f28419497f9722a3daafe3b4186f6b6457e08380a380f35b631e4fbdf760e01b82526004829052602482fd5b80fd5b503461017f57604036600319011261017f5760206101af6101a1610d59565b6101a9610d6f565b90610f67565b604051908152f35b503461017f578060031936011261017f576020604051611e788152f35b503461017f578060031936011261017f5760206040516101f48152f35b503461017f57604036600319011261017f5761020b610d59565b602435906102176110b8565b6001600160a01b0316808352600460205260408320546102399060ff16610f25565b338352600560205260408320815f5260205260405f209160018301928354938285106103cd5781549485156103985761027b816102768887610dd7565b610dea565b9586156103625761029892610291868994610f18565b9055610f18565b90556002546001600160a01b0316803b1561035e57604051632770a7eb60e21b8152336004820152602481018390529085908290604490829084905af180156103535761033a575b50602093506102f08333846111ae565b60405190838252848201527f06cc7e90b4f2b554a9614b0caa84f909f3498c820ae47c731f490c28c07f7d3b60403392a360015f5160206112305f395f51905f5255604051908152f35b610345858092610db5565b61034f57836102e0565b8380fd5b6040513d87823e3d90fd5b8480fd5b60405162461bcd60e51b815260206004820152600e60248201526d726f756e647320746f207a65726f60901b6044820152606490fd5b60405162461bcd60e51b815260206004820152600d60248201526c1b9bc818dbdb1b185d195c985b609a1b6044820152606490fd5b60405162461bcd60e51b815260206004820152600e60248201526d195e18d959591cc81b5a5b9d195960921b6044820152606490fd5b503461017f57604036600319011261017f5761041d610d59565b602435906104296110b8565b6001600160a01b0381168084526004602052604084205490919061044f9060ff16610f25565b82156106535761047061046a670de0b6b3a7640000926110f0565b84610dd7565b04801561062257611b588102908104611b580361060e5761271090049164e8d4a5100083029280840464e8d4a51000149015171561060e576040516323b872dd60e01b85523360045230602452604482905260208560648180875af19060018651148216156105ed575b60405284606052156105d957338452600560205260408420825f5260205260405f20610507828254610f0b565b9055338452600560205260408420825f52602052600160405f200161052d848254610f0b565b90556002546001600160a01b0316803b1561035e576040516340c10f1960e01b8152336004820152602481018590529085908290604490829084905af18015610353576105c4575b506020935060405190815282848201527f6c86f3fd5118b3aa8bb4f389a617046de0a3d3d477de1a1673d227f802f616dc60403392a360015f5160206112305f395f51905f5255604051908152f35b6105cf858092610db5565b61034f5783610575565b635274afe760e01b84526004829052602484fd5b90600181151661060557833b15153d151616906104da565b503d85823e3d90fd5b634e487b7160e01b84526011600452602484fd5b60405162461bcd60e51b81526020600482015260096024820152681d1bdbc81cdb585b1b60ba1b6044820152606490fd5b60405162461bcd60e51b815260206004820152600b60248201526a1e995c9bc8185b5bdd5b9d60aa1b6044820152606490fd5b503461017f578060031936011261017f576003546040516001600160a01b039091168152602090f35b503461017f578060031936011261017f57546040516001600160a01b039091168152602090f35b503461089e57604036600319011261089e576106f0610d59565b6106f8610d6f565b906107016110b8565b6001600160a01b0382165f8181526004602052604090205490919060ff161561096b576001600160a01b0381169033821461092e57815f52600560205260405f20835f5260205260405f20600181019485549283156108fb576107678261271092610e08565b10156108c057610776906110f0565b64e8d4a51000830490670de0b6b3a7640000820291808304670de0b6b3a764000014901517156108ac576107a991610dea565b6101f48102908082046101f414811517156108ac576127106107cc920490610f0b565b948154908187116108a2575b6107e5915f889255610f18565b90556002546001600160a01b0316803b1561089e57604051632770a7eb60e21b815233600482015260248101839052905f908290604490829084905af180156108935761087e575b506108398433856111ae565b60405193845260208401527fd1ef587d13fefe63f9bc582e973aad46877ef08cfe790838721bd521c53caf5660403394a460015f5160206112305f395f51905f525580f35b61088b9195505f90610db5565b5f935f61082d565b6040513d5f823e3d90fd5b5f80fd5b90955085906107d8565b634e487b7160e01b5f52601160045260245ffd5b60405162461bcd60e51b8152602060048201526013602482015272706f736974696f6e206973206865616c74687960681b6044820152606490fd5b60405162461bcd60e51b815260206004820152600b60248201526a3737903837b9b4ba34b7b760a91b6044820152606490fd5b60405162461bcd60e51b815260206004820152601560248201527431b0b73737ba103634b8bab4b230ba329039b2b63360591b6044820152606490fd5b60405162461bcd60e51b815260206004820152600d60248201526c1b9bdd081cdd5c1c1bdc9d1959609a1b6044820152606490fd5b3461089e57602036600319011261089e576109b9610d59565b6109c1611092565b6001600160a01b03165f818152600460205260408120805460ff191690557f4c910b69fe65a61f7531b9c5042b2329ca7179c77290aa7e2eb3afa3c8511fd39080a2005b3461089e575f36600319011261089e576001546040516001600160a01b039091168152602090f35b3461089e57602036600319011261089e57610a46610d59565b610a4e611092565b6001600160a01b03168015610a79576bffffffffffffffffffffffff60a01b60015416176001555f80f35b606460405162461bcd60e51b81526020600482015260046024820152637a65726f60e01b6044820152fd5b3461089e575f36600319011261089e57610abc611092565b5f80546001600160a01b0319811682556001600160a01b03167f8be0079c531659141344cd1fd0a4f28419497f9722a3daafe3b4186f6b6457e08280a3005b3461089e57602036600319011261089e57610b14610d59565b610b1c611092565b6001600160a01b03165f818152600460205260408120805460ff191660011790557f784c8f4dbf0ffedd6e72c76501c545a70f8b203b30a26ce542bf92ba87c248a49080a2005b3461089e57602036600319011261089e576001600160a01b03610b84610d59565b165f526004602052602060ff60405f2054166040519015158152f35b3461089e57604036600319011261089e5760206101af610bbe610d59565b610bc6610d6f565b90610e08565b3461089e57604036600319011261089e57610be5610d59565b610bed610d6f565b9060018060a01b03165f52600560205260405f209060018060a01b03165f526020526040805f206001815491015482519182526020820152f35b3461089e575f36600319011261089e576020604051611b588152f35b3461089e57604036600319011261089e57610c5c610d59565b610c64610d6f565b9060018060a01b03165f52600560205260405f2060018060a01b0382165f5260205260405f20600160405191610c9983610d85565b8054835201546020808301919091526001546040516353084eff60e01b81526001600160a01b0394851660048201529384916024918391165afa918215610893575f92610d00575b6020670de0b6b3a7640000610cf7858551610dd7565b04604051908152f35b91506020823d602011610d2e575b81610d1b60209383610db5565b8101031261089e57905190610cf7610ce1565b3d9150610d0e565b3461089e575f36600319011261089e576002546001600160a01b03168152602090f35b600435906001600160a01b038216820361089e57565b602435906001600160a01b038216820361089e57565b6040810190811067ffffffffffffffff821117610da157604052565b634e487b7160e01b5f52604160045260245ffd5b90601f8019910116810190811067ffffffffffffffff821117610da157604052565b818102929181159184041417156108ac57565b8115610df4570490565b634e487b7160e01b5f52601260045260245ffd5b60018060a01b03165f52600560205260405f2060018060a01b0382165f5260205260405f2090600160405192610e3d84610d85565b80548452015491602081019280845215610f03576001546040516353084eff60e01b81526001600160a01b0393841660048201529260209184916024918391165afa918215610893575f92610ecd575b50610ea864e8d4a5100092670de0b6b3a76400009251610dd7565b04915104611e78820291808304611e7814901517156108ac57610eca91610dea565b90565b91506020823d602011610efb575b81610ee860209383610db5565b8101031261089e57905190610ea8610e8d565b3d9150610edb565b5050505f1990565b919082018092116108ac57565b919082039182116108ac57565b15610f2c57565b60405162461bcd60e51b81526020600482015260136024820152721d1bdad95b881b9bdd081cdd5c1c1bdc9d1959606a1b6044820152606490fd5b60018060a01b03165f52600560205260405f2060018060a01b0382165f5260205260405f209060405190610f9a82610d85565b6001835493848452015492602083019384521561108b576001546040516353084eff60e01b81526001600160a01b0392831660048201529160209183916024918391165afa908115610893575f91611051575b5061100290670de0b6b3a76400009251610dd7565b04611b58810290808204611b5814901517156108ac5761271090049064e8d4a5100082029180830464e8d4a5100014901517156108ac57518082111561104b57610eca91610f18565b50505f90565b90506020813d602011611083575b8161106c60209383610db5565b8101031261089e5751670de0b6b3a7640000610fed565b3d915061105f565b5050505f90565b5f546001600160a01b031633036110a557565b63118cdaa760e01b5f523360045260245ffd5b60025f5160206112305f395f51905f5254146110e15760025f5160206112305f395f51905f5255565b633ee5aeb560e01b5f5260045ffd5b6001546040516353084eff60e01b81526001600160a01b039283166004820152929160209184916024918391165afa918215610893575f9261117a575b50811561113657565b606460405162461bcd60e51b815260206004820152602060248201527f7853746f636b5661756c743a207072696365206e6f7420617661696c61626c656044820152fd5b9091506020813d6020116111a6575b8161119660209383610db5565b8101031261089e5751905f61112d565b3d9150611189565b916040519163a9059cbb60e01b5f5260018060a01b031660045260245260205f60448180865af19060015f511482161561120e575b604052156111ee5750565b635274afe760e01b5f9081526001600160a01b0391909116600452602490fd5b90600181151661122657823b15153d151616906111e3565b503d5f823e3d90fdfe9b779b17422d0df92223018b32b4d1fa46e071723d6817e2486d003becc55f00a2646970667358221220fb40aa9a64eed5bcfe4e67fa93b3ab9d522e6c801a57cf143c20bc4d09ae16e164736f6c634300081b0033","linkReferences":{}},"methodIdentifiers":{"LIQ_BONUS_BPS()":"e3513531","LIQ_THRESHOLD_BPS()":"e3cd32d6","STAKE_LTV_BPS()":"40b17b9b","addSupportedToken(address)":"6d69fcaf","gdUSD()":"1c6e8122","getAvailableGridTokens(address,address)":"ef133e51","getCollateralValue(address,address)":"1eee3aa3","getHealthFactor(address,address)":"57c89a7d","grid()":"a23836ef","liquidate(address,address)":"86b9d81f","owner()":"8da5cb5b","positions(address,address)":"4bd21445","priceFeed()":"741bef1a","removeSupportedToken(address)":"76319190","renounceOwnership()":"715018a6","setPriceFeed(address)":"724e78da","stake(address,uint256)":"adc9772e","supportedTokens(address)":"68c4ac26","transferOwnership(address)":"f2fde38b","unstake(address,uint256)":"c2a672e0"},"id":31}