{"abi":[{"type":"constructor","inputs":[{"name":"priceFeed_","type":"address","internalType":"address"},{"name":"grid_","type":"address","internalType":"address"}],"stateMutability":"nonpayable"},{"type":"function","name":"LIQ_BONUS_BPS","inputs":[],"outputs":[{"name":"","type":"uint256","internalType":"uint256"}],"stateMutability":"view"},{"type":"function","name":"LIQ_THRESHOLD_BPS","inputs":[],"outputs":[{"name":"","type":"uint256","internalType":"uint256"}],"stateMutability":"view"},{"type":"function","name":"STAKE_LTV_BPS","inputs":[],"outputs":[{"name":"","type":"uint256","internalType":"uint256"}],"stateMutability":"view"},{"type":"function","name":"addSupportedToken","inputs":[{"name":"token","type":"address","internalType":"address"}],"outputs":[],"stateMutability":"nonpayable"},{"type":"function","name":"getAvailableGridTokens","inputs":[{"name":"user","type":"address","internalType":"address"},{"name":"token","type":"address","internalType":"address"}],"outputs":[{"name":"","type":"uint256","internalType":"uint256"}],"stateMutability":"view"},{"type":"function","name":"getCollateralValue","inputs":[{"name":"user","type":"address","internalType":"address"},{"name":"token","type":"address","internalType":"address"}],"outputs":[{"name":"usdcValue","type":"uint256","internalType":"uint256"}],"stateMutability":"view"},{"type":"function","name":"getHealthFactor","inputs":[{"name":"user","type":"address","internalType":"address"},{"name":"token","type":"address","internalType":"address"}],"outputs":[{"name":"","type":"uint256","internalType":"uint256"}],"stateMutability":"view"},{"type":"function","name":"grid","inputs":[],"outputs":[{"name":"","type":"address","internalType":"contract xStocksGrid"}],"stateMutability":"view"},{"type":"function","name":"liquidate","inputs":[{"name":"user","type":"address","internalType":"address"},{"name":"token","type":"address","internalType":"address"}],"outputs":[],"stateMutability":"nonpayable"},{"type":"function","name":"owner","inputs":[],"outputs":[{"name":"","type":"address","internalType":"address"}],"stateMutability":"view"},{"type":"function","name":"positions","inputs":[{"name":"","type":"address","internalType":"address"},{"name":"","type":"address","internalType":"address"}],"outputs":[{"name":"collateral","type":"uint256","internalType":"uint256"},{"name":"gridTokensMinted","type":"uint256","internalType":"uint256"}],"stateMutability":"view"},{"type":"function","name":"priceFeed","inputs":[],"outputs":[{"name":"","type":"address","internalType":"contract PriceFeed"}],"stateMutability":"view"},{"type":"function","name":"removeSupportedToken","inputs":[{"name":"token","type":"address","internalType":"address"}],"outputs":[],"stateMutability":"nonpayable"},{"type":"function","name":"renounceOwnership","inputs":[],"outputs":[],"stateMutability":"nonpayable"},{"type":"function","name":"setPriceFeed","inputs":[{"name":"pf","type":"address","internalType":"address"}],"outputs":[],"stateMutability":"nonpayable"},{"type":"function","name":"stake","inputs":[{"name":"token","type":"address","internalType":"address"},{"name":"amount","type":"uint256","internalType":"uint256"}],"outputs":[{"name":"gridTokensMinted","type":"uint256","internalType":"uint256"}],"stateMutability":"nonpayable"},{"type":"function","name":"supportedTokens","inputs":[{"name":"","type":"address","internalType":"address"}],"outputs":[{"name":"","type":"bool","internalType":"bool"}],"stateMutability":"view"},{"type":"function","name":"transferOwnership","inputs":[{"name":"newOwner","type":"address","internalType":"address"}],"outputs":[],"stateMutability":"nonpayable"},{"type":"function","name":"unstake","inputs":[{"name":"token","type":"address","internalType":"address"},{"name":"gridTokenAmount","type":"uint256","internalType":"uint256"}],"outputs":[{"name":"collateralOut","type":"uint256","internalType":"uint256"}],"stateMutability":"nonpayable"},{"type":"event","name":"Liquidated","inputs":[{"name":"user","type":"address","indexed":true,"internalType":"address"},{"name":"token","type":"address","indexed":true,"internalType":"address"},{"name":"liquidator","type":"address","indexed":true,"internalType":"address"},{"name":"collateralSeized","type":"uint256","indexed":false,"internalType":"uint256"},{"name":"gridTokensRepaid","type":"uint256","indexed":false,"internalType":"uint256"}],"anonymous":false},{"type":"event","name":"OwnershipTransferred","inputs":[{"name":"previousOwner","type":"address","indexed":true,"internalType":"address"},{"name":"newOwner","type":"address","indexed":true,"internalType":"address"}],"anonymous":false},{"type":"event","name":"Staked","inputs":[{"name":"user","type":"address","indexed":true,"internalType":"address"},{"name":"token","type":"address","indexed":true,"internalType":"address"},{"name":"collateralAmount","type":"uint256","indexed":false,"internalType":"uint256"},{"name":"gridTokensMinted","type":"uint256","indexed":false,"internalType":"uint256"}],"anonymous":false},{"type":"event","name":"TokenAdded","inputs":[{"name":"token","type":"address","indexed":true,"internalType":"address"}],"anonymous":false},{"type":"event","name":"TokenRemoved","inputs":[{"name":"token","type":"address","indexed":true,"internalType":"address"}],"anonymous":false},{"type":"event","name":"Unstaked","inputs":[{"name":"user","type":"address","indexed":true,"internalType":"address"},{"name":"token","type":"address","indexed":true,"internalType":"address"},{"name":"collateralReturned","type":"uint256","indexed":false,"internalType":"uint256"},{"name":"gridTokensBurned","type":"uint256","indexed":false,"internalType":"uint256"}],"anonymous":false},{"type":"error","name":"OwnableInvalidOwner","inputs":[{"name":"owner","type":"address","internalType":"address"}]},{"type":"error","name":"OwnableUnauthorizedAccount","inputs":[{"name":"account","type":"address","internalType":"address"}]},{"type":"error","name":"ReentrancyGuardReentrantCall","inputs":[]},{"type":"error","name":"SafeERC20FailedOperation","inputs":[{"name":"token","type":"address","internalType":"address"}]}],"bytecode":{"object":"0x60803461018b57601f61161c38819003918201601f19168301916001600160401b0383118484101761018f57808492604094855283398101031261018b57610052602061004b836101a3565b92016101a3565b3315610178575f8054336001600160a01b0319821681178355604051949290916001600160a01b0316907f8be0079c531659141344cd1fd0a4f28419497f9722a3daafe3b4186f6b6457e09080a360017f9b779b17422d0df92223018b32b4d1fa46e071723d6817e2486d003becc55f00556001600160a01b031691821561014557506001600160a01b03169081156101145760018060a01b0319600154161760015560018060a01b0319600254161760025560405161146490816101b88239f35b60405162461bcd60e51b81526020600482015260096024820152681e995c9bc819dc9a5960ba1b6044820152606490fd5b62461bcd60e51b815260206004820152600e60248201526d1e995c9bc81c1c9a58d95199595960921b6044820152606490fd5b631e4fbdf760e01b5f525f60045260245ffd5b5f80fd5b634e487b7160e01b5f52604160045260245ffd5b51906001600160a01b038216820361018b5756fe60806040526004361015610011575f80fd5b5f5f3560e01c80631eee3aa314610c4957806340b17b9b14610c2d5780634bd2144514610bd257806357c89a7d14610ba657806368c4ac2614610b695780636d69fcaf14610b01578063715018a614610aaa578063724e78da14610a33578063741bef1a14610a0b57806376319190146109a657806386b9d81f146106d55780638da5cb5b146106ae578063a23836ef14610685578063adc9772e146103fd578063c2a672e0146101e2578063e3513531146101c5578063e3cd32d6146101a8578063ef133e51146101735763f2fde38b146100eb575f80fd5b3461017057602036600319011261017057610104610d3c565b61010c611075565b6001600160a01b0316801561015c5781546001600160a01b03198116821783556001600160a01b03167f8be0079c531659141344cd1fd0a4f28419497f9722a3daafe3b4186f6b6457e08380a380f35b631e4fbdf760e01b82526004829052602482fd5b80fd5b50346101705760403660031901126101705760206101a0610192610d3c565b61019a610d52565b90610f4a565b604051908152f35b50346101705780600319360112610170576020604051611e788152f35b503461017057806003193601126101705760206040516101f48152f35b5034610170576040366003190112610170576101fc610d3c565b60243561020761109b565b6001600160a01b0382168084526003602052604084205490919061022d9060ff16610f08565b338452600460205260408420825f5260205260405f2060018101908154918383106103c757815495861561039257610264906110e1565b92610278816102738988610dba565b610dcd565b96871561035c576102959261028e878a94610efb565b9055610efb565b90556001600160a01b0316803b1561035857604051632770a7eb60e21b8152336004820152602481018390529085908290604490829084905af1801561034d57610334575b50602093506102ea83338461138d565b60405190838252848201527f06cc7e90b4f2b554a9614b0caa84f909f3498c820ae47c731f490c28c07f7d3b60403392a360015f51602061140f5f395f51905f5255604051908152f35b61033f858092610d98565b61034957836102da565b8380fd5b6040513d87823e3d90fd5b8480fd5b60405162461bcd60e51b815260206004820152600e60248201526d726f756e647320746f207a65726f60901b6044820152606490fd5b60405162461bcd60e51b815260206004820152600d60248201526c1b9bc818dbdb1b185d195c985b609a1b6044820152606490fd5b60405162461bcd60e51b815260206004820152600e60248201526d195e18d959591cc81b5a5b9d195960921b6044820152606490fd5b503461017057604036600319011261017057610417610d3c565b60243561042261109b565b6001600160a01b038216808452600360205260408420549091906104489060ff16610f08565b801561065257670de0b6b3a764000061047261046c610466866110e1565b956112cf565b83610dba565b04801561062157611b588102908104611b580361060d5761271090049264e8d4a5100084029380850464e8d4a51000149015171561060d576040516323b872dd60e01b86523360045230602452604483905260208660648180885af19060018751148216156105ec575b60405285606052156105d857338552600460205260408520835f5260205260405f20610509838254610eee565b9055338552600460205260408520835f52602052600160405f200161052f858254610eee565b90556001600160a01b0316803b15610358576040516340c10f1960e01b8152336004820152602481018590529085908290604490829084905af1801561034d576105c3575b506020935060405190815282848201527f6c86f3fd5118b3aa8bb4f389a617046de0a3d3d477de1a1673d227f802f616dc60403392a360015f51602061140f5f395f51905f5255604051908152f35b6105ce858092610d98565b6103495783610574565b635274afe760e01b85526004839052602485fd5b90600181151661060457843b15153d151616906104dc565b503d86823e3d90fd5b634e487b7160e01b85526011600452602485fd5b60405162461bcd60e51b81526020600482015260096024820152681d1bdbc81cdb585b1b60ba1b6044820152606490fd5b60405162461bcd60e51b815260206004820152600b60248201526a1e995c9bc8185b5bdd5b9d60aa1b6044820152606490fd5b50346101705780600319360112610170576002546040516001600160a01b039091168152602090f35b5034610170578060031936011261017057546040516001600160a01b039091168152602090f35b50346108a45760403660031901126108a4576106ef610d3c565b6106f7610d52565b9061070061109b565b6001600160a01b0382165f8181526003602052604090205490919060ff1615610971576001600160a01b0381169033821461093457815f52600460205260405f20835f5260205260405f209360018501948554928315610901576107678361271092610deb565b10156108c65761077f610779836110e1565b926112cf565b64e8d4a51000840490670de0b6b3a7640000820291808304670de0b6b3a764000014901517156108b2576107b291610dcd565b6101f48102908082046101f414811517156108b2576127106107d5920490610eee565b958154908188116108a8575b6107ee915f899255610efb565b90556001600160a01b0316803b156108a457604051632770a7eb60e21b815233600482015260248101839052905f908290604490829084905af1801561089957610884575b5061083f84338561138d565b60405193845260208401527fd1ef587d13fefe63f9bc582e973aad46877ef08cfe790838721bd521c53caf5660403394a460015f51602061140f5f395f51905f525580f35b6108919195505f90610d98565b5f935f610833565b6040513d5f823e3d90fd5b5f80fd5b90965086906107e1565b634e487b7160e01b5f52601160045260245ffd5b60405162461bcd60e51b8152602060048201526013602482015272706f736974696f6e206973206865616c74687960681b6044820152606490fd5b60405162461bcd60e51b815260206004820152600b60248201526a3737903837b9b4ba34b7b760a91b6044820152606490fd5b60405162461bcd60e51b815260206004820152601560248201527431b0b73737ba103634b8bab4b230ba329039b2b63360591b6044820152606490fd5b60405162461bcd60e51b815260206004820152600d60248201526c1b9bdd081cdd5c1c1bdc9d1959609a1b6044820152606490fd5b346108a45760203660031901126108a4576109bf610d3c565b6109c7611075565b6001600160a01b03165f818152600360205260408120805460ff191690557f4c910b69fe65a61f7531b9c5042b2329ca7179c77290aa7e2eb3afa3c8511fd39080a2005b346108a4575f3660031901126108a4576001546040516001600160a01b039091168152602090f35b346108a45760203660031901126108a457610a4c610d3c565b610a54611075565b6001600160a01b03168015610a7f576bffffffffffffffffffffffff60a01b60015416176001555f80f35b606460405162461bcd60e51b81526020600482015260046024820152637a65726f60e01b6044820152fd5b346108a4575f3660031901126108a457610ac2611075565b5f80546001600160a01b0319811682556001600160a01b03167f8be0079c531659141344cd1fd0a4f28419497f9722a3daafe3b4186f6b6457e08280a3005b346108a45760203660031901126108a457610b1a610d3c565b610b22611075565b6001600160a01b03165f818152600360205260408120805460ff191660011790557f784c8f4dbf0ffedd6e72c76501c545a70f8b203b30a26ce542bf92ba87c248a49080a2005b346108a45760203660031901126108a4576001600160a01b03610b8a610d3c565b165f526003602052602060ff60405f2054166040519015158152f35b346108a45760403660031901126108a45760206101a0610bc4610d3c565b610bcc610d52565b90610deb565b346108a45760403660031901126108a457610beb610d3c565b610bf3610d52565b9060018060a01b03165f52600460205260405f209060018060a01b03165f526020526040805f206001815491015482519182526020820152f35b346108a4575f3660031901126108a4576020604051611b588152f35b346108a45760403660031901126108a457610c62610d3c565b610c6a610d52565b9060018060a01b03165f52600460205260405f2060018060a01b0382165f5260205260405f20600160405191610c9f83610d68565b8054835201546020808301919091526001546040516353084eff60e01b81526001600160a01b0394851660048201529384916024918391165afa918215610899575f92610d06575b6020670de0b6b3a7640000610cfd858551610dba565b04604051908152f35b91506020823d602011610d34575b81610d2160209383610d98565b810103126108a457905190610cfd610ce7565b3d9150610d14565b600435906001600160a01b03821682036108a457565b602435906001600160a01b03821682036108a457565b6040810190811067ffffffffffffffff821117610d8457604052565b634e487b7160e01b5f52604160045260245ffd5b90601f8019910116810190811067ffffffffffffffff821117610d8457604052565b818102929181159184041417156108b257565b8115610dd7570490565b634e487b7160e01b5f52601260045260245ffd5b60018060a01b03165f52600460205260405f2060018060a01b0382165f5260205260405f2090600160405192610e2084610d68565b80548452015491602081019280845215610ee6576001546040516353084eff60e01b81526001600160a01b0393841660048201529260209184916024918391165afa918215610899575f92610eb0575b50610e8b64e8d4a5100092670de0b6b3a76400009251610dba565b04915104611e78820291808304611e7814901517156108b257610ead91610dcd565b90565b91506020823d602011610ede575b81610ecb60209383610d98565b810103126108a457905190610e8b610e70565b3d9150610ebe565b5050505f1990565b919082018092116108b257565b919082039182116108b257565b15610f0f57565b60405162461bcd60e51b81526020600482015260136024820152721d1bdad95b881b9bdd081cdd5c1c1bdc9d1959606a1b6044820152606490fd5b60018060a01b03165f52600460205260405f2060018060a01b0382165f5260205260405f209060405190610f7d82610d68565b6001835493848452015492602083019384521561106e576001546040516353084eff60e01b81526001600160a01b0392831660048201529160209183916024918391165afa908115610899575f91611034575b50610fe590670de0b6b3a76400009251610dba565b04611b58810290808204611b5814901517156108b25761271090049064e8d4a5100082029180830464e8d4a5100014901517156108b257518082111561102e57610ead91610efb565b50505f90565b90506020813d602011611066575b8161104f60209383610d98565b810103126108a45751670de0b6b3a7640000610fd0565b3d9150611042565b5050505f90565b5f546001600160a01b0316330361108857565b63118cdaa760e01b5f523360045260245ffd5b60025f51602061140f5f395f51905f5254146110c45760025f51602061140f5f395f51905f5255565b633ee5aeb560e01b5f5260045ffd5b519060ff821682036108a457565b60025460405163cb67e3b160e01b81526001600160a01b039283166004820152916101a09183916024918391165afa908115610899575f916111d0575b5080511561118b5760200180516001600160a01b03161561114657516001600160a01b031690565b60405162461bcd60e51b815260206004820152601b60248201527f6e6f2067726964546f6b656e20666f7220746869732073746f636b00000000006044820152606490fd5b60405162461bcd60e51b815260206004820152601c60248201527f746f6b656e206e6f7420636f6e66696775726564206f6e2067726964000000006044820152606490fd5b90506101a0813d82116112c7575b816111ec6101a09383610d98565b810103126108a457604051906101a0820182811067ffffffffffffffff821117610d8457604052805180151581036108a45782526020810151906001600160a01b03821682036108a45761018091602084015260408101516040840152606081015160608401526080810151608084015260a081015160a084015260c081015160c084015260e081015160e084015261128861010082016110d3565b61010084015261129b61012082016110d3565b61012084015261014081015161014084015261016081015161016084015201516101808201525f61111e565b3d91506111de565b6001546040516353084eff60e01b81526001600160a01b039283166004820152929160209184916024918391165afa918215610899575f92611359575b50811561131557565b606460405162461bcd60e51b815260206004820152602060248201527f7853746f636b5661756c743a207072696365206e6f7420617661696c61626c656044820152fd5b9091506020813d602011611385575b8161137560209383610d98565b810103126108a45751905f61130c565b3d9150611368565b916040519163a9059cbb60e01b5f5260018060a01b031660045260245260205f60448180865af19060015f51148216156113ed575b604052156113cd5750565b635274afe760e01b5f9081526001600160a01b0391909116600452602490fd5b90600181151661140557823b15153d151616906113c2565b503d5f823e3d90fdfe9b779b17422d0df92223018b32b4d1fa46e071723d6817e2486d003becc55f00a2646970667358221220238a55661028468e90636ff884ed3fafdfd1345fb36f6d6a0c0d8588e7eff77f64736f6c634300081b0033","linkReferences":{}},"methodIdentifiers":{"LIQ_BONUS_BPS()":"e3513531","LIQ_THRESHOLD_BPS()":"e3cd32d6","STAKE_LTV_BPS()":"40b17b9b","addSupportedToken(address)":"6d69fcaf","getAvailableGridTokens(address,address)":"ef133e51","getCollateralValue(address,address)":"1eee3aa3","getHealthFactor(address,address)":"57c89a7d","grid()":"a23836ef","liquidate(address,address)":"86b9d81f","owner()":"8da5cb5b","positions(address,address)":"4bd21445","priceFeed()":"741bef1a","removeSupportedToken(address)":"76319190","renounceOwnership()":"715018a6","setPriceFeed(address)":"724e78da","stake(address,uint256)":"adc9772e","supportedTokens(address)":"68c4ac26","transferOwnership(address)":"f2fde38b","unstake(address,uint256)":"c2a672e0"},"id":31}