{"abi":[{"type":"constructor","inputs":[{"name":"name_","type":"string","internalType":"string"},{"name":"symbol_","type":"string","internalType":"string"},{"name":"initialMinter_","type":"address","internalType":"address"}],"stateMutability":"nonpayable"},{"type":"function","name":"addMinter","inputs":[{"name":"m","type":"address","internalType":"address"}],"outputs":[],"stateMutability":"nonpayable"},{"type":"function","name":"allowance","inputs":[{"name":"owner","type":"address","internalType":"address"},{"name":"spender","type":"address","internalType":"address"}],"outputs":[{"name":"","type":"uint256","internalType":"uint256"}],"stateMutability":"view"},{"type":"function","name":"approve","inputs":[{"name":"spender","type":"address","internalType":"address"},{"name":"value","type":"uint256","internalType":"uint256"}],"outputs":[{"name":"","type":"bool","internalType":"bool"}],"stateMutability":"nonpayable"},{"type":"function","name":"balanceOf","inputs":[{"name":"account","type":"address","internalType":"address"}],"outputs":[{"name":"","type":"uint256","internalType":"uint256"}],"stateMutability":"view"},{"type":"function","name":"burn","inputs":[{"name":"from","type":"address","internalType":"address"},{"name":"amount","type":"uint256","internalType":"uint256"}],"outputs":[],"stateMutability":"nonpayable"},{"type":"function","name":"decimals","inputs":[],"outputs":[{"name":"","type":"uint8","internalType":"uint8"}],"stateMutability":"view"},{"type":"function","name":"isMinter","inputs":[{"name":"","type":"address","internalType":"address"}],"outputs":[{"name":"","type":"bool","internalType":"bool"}],"stateMutability":"view"},{"type":"function","name":"mint","inputs":[{"name":"to","type":"address","internalType":"address"},{"name":"amount","type":"uint256","internalType":"uint256"}],"outputs":[],"stateMutability":"nonpayable"},{"type":"function","name":"name","inputs":[],"outputs":[{"name":"","type":"string","internalType":"string"}],"stateMutability":"view"},{"type":"function","name":"owner","inputs":[],"outputs":[{"name":"","type":"address","internalType":"address"}],"stateMutability":"view"},{"type":"function","name":"removeMinter","inputs":[{"name":"m","type":"address","internalType":"address"}],"outputs":[],"stateMutability":"nonpayable"},{"type":"function","name":"symbol","inputs":[],"outputs":[{"name":"","type":"string","internalType":"string"}],"stateMutability":"view"},{"type":"function","name":"totalSupply","inputs":[],"outputs":[{"name":"","type":"uint256","internalType":"uint256"}],"stateMutability":"view"},{"type":"function","name":"transfer","inputs":[{"name":"to","type":"address","internalType":"address"},{"name":"value","type":"uint256","internalType":"uint256"}],"outputs":[{"name":"","type":"bool","internalType":"bool"}],"stateMutability":"nonpayable"},{"type":"function","name":"transferFrom","inputs":[{"name":"from","type":"address","internalType":"address"},{"name":"to","type":"address","internalType":"address"},{"name":"value","type":"uint256","internalType":"uint256"}],"outputs":[{"name":"","type":"bool","internalType":"bool"}],"stateMutability":"nonpayable"},{"type":"function","name":"transferOwnership","inputs":[{"name":"newOwner","type":"address","internalType":"address"}],"outputs":[],"stateMutability":"nonpayable"},{"type":"event","name":"Approval","inputs":[{"name":"owner","type":"address","indexed":true,"internalType":"address"},{"name":"spender","type":"address","indexed":true,"internalType":"address"},{"name":"value","type":"uint256","indexed":false,"internalType":"uint256"}],"anonymous":false},{"type":"event","name":"MinterAdded","inputs":[{"name":"minter","type":"address","indexed":true,"internalType":"address"}],"anonymous":false},{"type":"event","name":"MinterRemoved","inputs":[{"name":"minter","type":"address","indexed":true,"internalType":"address"}],"anonymous":false},{"type":"event","name":"OwnershipTransferred","inputs":[{"name":"oldOwner","type":"address","indexed":true,"internalType":"address"},{"name":"newOwner","type":"address","indexed":true,"internalType":"address"}],"anonymous":false},{"type":"event","name":"Transfer","inputs":[{"name":"from","type":"address","indexed":true,"internalType":"address"},{"name":"to","type":"address","indexed":true,"internalType":"address"},{"name":"value","type":"uint256","indexed":false,"internalType":"uint256"}],"anonymous":false},{"type":"error","name":"ERC20InsufficientAllowance","inputs":[{"name":"spender","type":"address","internalType":"address"},{"name":"allowance","type":"uint256","internalType":"uint256"},{"name":"needed","type":"uint256","internalType":"uint256"}]},{"type":"error","name":"ERC20InsufficientBalance","inputs":[{"name":"sender","type":"address","internalType":"address"},{"name":"balance","type":"uint256","internalType":"uint256"},{"name":"needed","type":"uint256","internalType":"uint256"}]},{"type":"error","name":"ERC20InvalidApprover","inputs":[{"name":"approver","type":"address","internalType":"address"}]},{"type":"error","name":"ERC20InvalidReceiver","inputs":[{"name":"receiver","type":"address","internalType":"address"}]},{"type":"error","name":"ERC20InvalidSender","inputs":[{"name":"sender","type":"address","internalType":"address"}]},{"type":"error","name":"ERC20InvalidSpender","inputs":[{"name":"spender","type":"address","internalType":"address"}]}],"bytecode":{"object":"0x6080604052346103b457610e7580380380610019816103b8565b9283398101906060818303126103b45780516001600160401b0381116103b457826100459183016103dd565b60208201519092906001600160401b0381116103b4576040916100699184016103dd565b9101516001600160a01b038116908190036103b45782516001600160401b0381116102c557600354600181811c911680156103aa575b60208210146102a757601f8111610347575b506020601f82116001146102e457819293945f926102d9575b50508160011b915f199060031b1c1916176003555b81516001600160401b0381116102c557600454600181811c911680156102bb575b60208210146102a757601f8111610244575b50602092601f82116001146101e357928192935f926101d8575b50508160011b915f199060031b1c1916176004555b80156101a557600580546001600160a01b031916331790555f81815260066020526040808220805460ff191660011790555191907f6ae172837ea30b801fbfcdd4108aa1d5bf8ff775444fd70256b44e6bf3dfc3f69080a2610a46908161042f8239f35b60405162461bcd60e51b815260206004820152600b60248201526a3d32b9379036b4b73a32b960a91b6044820152606490fd5b015190505f8061012c565b601f1982169360045f52805f20915f5b86811061022c5750836001959610610214575b505050811b01600455610141565b01515f1960f88460031b161c191690555f8080610206565b919260206001819286850151815501940192016101f3565b60045f527f8a35acfbc15ff81a39ae7d344fd709f28e8600b4aa8c65c6b64bfe7fe36bd19b601f830160051c8101916020841061029d575b601f0160051c01905b8181106102925750610112565b5f8155600101610285565b909150819061027c565b634e487b7160e01b5f52602260045260245ffd5b90607f1690610100565b634e487b7160e01b5f52604160045260245ffd5b015190505f806100ca565b601f1982169060035f52805f20915f5b81811061032f57509583600195969710610317575b505050811b016003556100df565b01515f1960f88460031b161c191690555f8080610309565b9192602060018192868b0151815501940192016102f4565b60035f527fc2575a0e9e593c00f959f8c92f12db2869c3395a3b0502d05e2516446f71f85b601f830160051c810191602084106103a0575b601f0160051c01905b81811061039557506100b1565b5f8155600101610388565b909150819061037f565b90607f169061009f565b5f80fd5b6040519190601f01601f191682016001600160401b038111838210176102c557604052565b81601f820112156103b4578051906001600160401b0382116102c55761040c601f8301601f19166020016103b8565b92828452602083830101116103b457815f9260208093018386015e830101529056fe6080806040526004361015610012575f80fd5b5f3560e01c90816306fdde031461079257508063095ea7b31461071057806318160ddd146106f357806323b872dd146106145780633092afd5146105a2578063313ce5671461058757806340c10f19146104cb57806370a08231146104945780638da5cb5b1461046c57806395d89b4114610351578063983b2d56146102d25780639dc29fac1461020b578063a9059cbb146101da578063aa271e1a1461019d578063dd62ed3e1461014d5763f2fde38b146100cc575f80fd5b34610149576020366003190112610149576100e561088b565b6005546001600160a01b038116916100fe3384146108b7565b6001600160a01b031691829061011582151561093e565b7f8be0079c531659141344cd1fd0a4f28419497f9722a3daafe3b4186f6b6457e05f80a36001600160a01b03191617600555005b5f80fd5b346101495760403660031901126101495761016661088b565b61016e6108a1565b6001600160a01b039182165f908152600160209081526040808320949093168252928352819020549051908152f35b34610149576020366003190112610149576001600160a01b036101be61088b565b165f526006602052602060ff60405f2054166040519015158152f35b34610149576040366003190112610149576102006101f661088b565b6024359033610979565b602060405160018152f35b346101495760403660031901126101495761022461088b565b60243590335f52600660205261024060ff60405f2054166108fa565b6001600160a01b031680156102bf57805f525f60205260405f20548281106102a6576020835f947fddf252ad1be2c89b69c2b068fc378daa952ba7f163c4a11628f55a4df523b3ef938587528684520360408620558060025403600255604051908152a3005b9063391434e360e21b5f5260045260245260445260645ffd5b634b637e8f60e11b5f525f60045260245ffd5b34610149576020366003190112610149576102eb61088b565b61030060018060a01b036005541633146108b7565b6001600160a01b031661031481151561093e565b805f52600660205260405f20600160ff198254161790557f6ae172837ea30b801fbfcdd4108aa1d5bf8ff775444fd70256b44e6bf3dfc3f65f80a2005b34610149575f366003190112610149576040515f6004548060011c90600181168015610462575b60208310811461044e5782855290811561043257506001146103dd575b50819003601f01601f191681019067ffffffffffffffff8211818310176103c9576103c582918260405282610861565b0390f35b634e487b7160e01b5f52604160045260245ffd5b905060045f527f8a35acfbc15ff81a39ae7d344fd709f28e8600b4aa8c65c6b64bfe7fe36bd19b5f905b82821061041c57506020915082010182610395565b6001816020925483858801015201910190610407565b90506020925060ff191682840152151560051b82010182610395565b634e487b7160e01b5f52602260045260245ffd5b91607f1691610378565b34610149575f366003190112610149576005546040516001600160a01b039091168152602090f35b34610149576020366003190112610149576001600160a01b036104b561088b565b165f525f602052602060405f2054604051908152f35b34610149576040366003190112610149576104e461088b565b60243590335f52600660205261050060ff60405f2054166108fa565b6001600160a01b031690811561057457600254908082018092116105605760207fddf252ad1be2c89b69c2b068fc378daa952ba7f163c4a11628f55a4df523b3ef915f9360025584845283825260408420818154019055604051908152a3005b634e487b7160e01b5f52601160045260245ffd5b63ec442f0560e01b5f525f60045260245ffd5b34610149575f36600319011261014957602060405160128152f35b34610149576020366003190112610149576105bb61088b565b6105d060018060a01b036005541633146108b7565b6001600160a01b03165f818152600660205260408120805460ff191690557fe94479a9f7e1952cc78f2d6baab678adc1b772d936c6583def489e524cb666929080a2005b346101495760603660031901126101495761062d61088b565b6106356108a1565b6001600160a01b0382165f818152600160209081526040808320338452909152902054909260443592915f198110610673575b506102009350610979565b8381106106d85784156106c55733156106b257610200945f52600160205260405f2060018060a01b0333165f526020528360405f209103905584610668565b634a1406b160e11b5f525f60045260245ffd5b63e602df0560e01b5f525f60045260245ffd5b8390637dc7a0d960e11b5f523360045260245260445260645ffd5b34610149575f366003190112610149576020600254604051908152f35b346101495760403660031901126101495761072961088b565b6024359033156106c5576001600160a01b03169081156106b257335f52600160205260405f20825f526020528060405f20556040519081527f8c5be1e5ebec7d5bd14f71427d1e84f3dd0314c0f7b2291e5b200ac8c7c3b92560203392a3602060405160018152f35b34610149575f366003190112610149575f6003548060011c90600181168015610857575b60208310811461044e5782855290811561043257506001146108025750819003601f01601f191681019067ffffffffffffffff8211818310176103c9576103c582918260405282610861565b905060035f527fc2575a0e9e593c00f959f8c92f12db2869c3395a3b0502d05e2516446f71f85b5f905b82821061084157506020915082010182610395565b600181602092548385880101520191019061082c565b91607f16916107b6565b602060409281835280519182918282860152018484015e5f828201840152601f01601f1916010190565b600435906001600160a01b038216820361014957565b602435906001600160a01b038216820361014957565b156108be57565b60405162461bcd60e51b815260206004820152601460248201527323b934b22a37b5b2b71d103737ba1037bbb732b960611b6044820152606490fd5b1561090157565b60405162461bcd60e51b815260206004820152601560248201527423b934b22a37b5b2b71d103737ba1036b4b73a32b960591b6044820152606490fd5b1561094557565b60405162461bcd60e51b815260206004820152600c60248201526b7a65726f206164647265737360a01b6044820152606490fd5b6001600160a01b03169081156102bf576001600160a01b031691821561057457815f525f60205260405f20548181106109f757817fddf252ad1be2c89b69c2b068fc378daa952ba7f163c4a11628f55a4df523b3ef92602092855f525f84520360405f2055845f525f825260405f20818154019055604051908152a3565b8263391434e360e21b5f5260045260245260445260645ffdfea264697066735822122061b8404465a1ecdc78eccce26434aa1c81299541711bee26ab535a766c24153364736f6c634300081b0033","linkReferences":{}},"methodIdentifiers":{"addMinter(address)":"983b2d56","allowance(address,address)":"dd62ed3e","approve(address,uint256)":"095ea7b3","balanceOf(address)":"70a08231","burn(address,uint256)":"9dc29fac","decimals()":"313ce567","isMinter(address)":"aa271e1a","mint(address,uint256)":"40c10f19","name()":"06fdde03","owner()":"8da5cb5b","removeMinter(address)":"3092afd5","symbol()":"95d89b41","totalSupply()":"18160ddd","transfer(address,uint256)":"a9059cbb","transferFrom(address,address,uint256)":"23b872dd","transferOwnership(address)":"f2fde38b"},"id":1}