{"abi":[{"type":"constructor","inputs":[{"name":"usdc_","type":"address","internalType":"address"},{"name":"priceFeed_","type":"address","internalType":"address"},{"name":"gdUSD_","type":"address","internalType":"address"}],"stateMutability":"nonpayable"},{"type":"function","name":"bets","inputs":[{"name":"","type":"uint256","internalType":"uint256"}],"outputs":[{"name":"player","type":"address","internalType":"address"},{"name":"token","type":"address","internalType":"address"},{"name":"priceTicks","type":"int8","internalType":"int8"},{"name":"timeBuckets","type":"uint256","internalType":"uint256"},{"name":"targetPrice","type":"uint256","internalType":"uint256"},{"name":"expiryTs","type":"uint256","internalType":"uint256"},{"name":"gridTokenAmount","type":"uint256","internalType":"uint256"},{"name":"multiplier","type":"uint256","internalType":"uint256"},{"name":"resolved","type":"bool","internalType":"bool"},{"name":"won","type":"bool","internalType":"bool"},{"name":"claimed","type":"bool","internalType":"bool"}],"stateMutability":"view"},{"type":"function","name":"bucketMaxPayout","inputs":[{"name":"","type":"address","internalType":"address"},{"name":"","type":"uint256","internalType":"uint256"}],"outputs":[{"name":"","type":"uint256","internalType":"uint256"}],"stateMutability":"view"},{"type":"function","name":"claimMultiple","inputs":[{"name":"betIds","type":"uint256[]","internalType":"uint256[]"}],"outputs":[],"stateMutability":"nonpayable"},{"type":"function","name":"claimWinnings","inputs":[{"name":"betId","type":"uint256","internalType":"uint256"}],"outputs":[],"stateMutability":"nonpayable"},{"type":"function","name":"configureToken","inputs":[{"name":"token","type":"address","internalType":"address"},{"name":"annualVolBps","type":"uint256","internalType":"uint256"},{"name":"tickSizeUsdc","type":"uint256","internalType":"uint256"},{"name":"bucketSeconds","type":"uint256","internalType":"uint256"},{"name":"houseEdgeBps","type":"uint256","internalType":"uint256"},{"name":"minBetUsdc","type":"uint256","internalType":"uint256"},{"name":"maxBetUsdc","type":"uint256","internalType":"uint256"},{"name":"gridWidth","type":"uint8","internalType":"uint8"},{"name":"gridHalfHeight","type":"uint8","internalType":"uint8"}],"outputs":[],"stateMutability":"nonpayable"},{"type":"function","name":"depositLiquidity","inputs":[{"name":"token","type":"address","internalType":"address"},{"name":"usdcAmount","type":"uint256","internalType":"uint256"}],"outputs":[],"stateMutability":"nonpayable"},{"type":"function","name":"depositUsdc","inputs":[{"name":"token","type":"address","internalType":"address"},{"name":"usdcAmount","type":"uint256","internalType":"uint256"}],"outputs":[{"name":"gridTokensMinted","type":"uint256","internalType":"uint256"}],"stateMutability":"nonpayable"},{"type":"function","name":"freePoolGridTokens","inputs":[{"name":"token","type":"address","internalType":"address"}],"outputs":[{"name":"","type":"uint256","internalType":"uint256"}],"stateMutability":"view"},{"type":"function","name":"gdUSD","inputs":[],"outputs":[{"name":"","type":"address","internalType":"contract GridToken"}],"stateMutability":"view"},{"type":"function","name":"gdUSDToken","inputs":[],"outputs":[{"name":"","type":"address","internalType":"address"}],"stateMutability":"view"},{"type":"function","name":"getBetStatus","inputs":[{"name":"betId","type":"uint256","internalType":"uint256"}],"outputs":[{"name":"resolved","type":"bool","internalType":"bool"},{"name":"won","type":"bool","internalType":"bool"},{"name":"claimed","type":"bool","internalType":"bool"},{"name":"payout","type":"uint256","internalType":"uint256"}],"stateMutability":"view"},{"type":"function","name":"getGridMatrix","inputs":[{"name":"token","type":"address","internalType":"address"}],"outputs":[{"name":"multipliers","type":"uint256[][]","internalType":"uint256[][]"},{"name":"prices","type":"uint256[]","internalType":"uint256[]"},{"name":"currentPrice","type":"uint256","internalType":"uint256"}],"stateMutability":"view"},{"type":"function","name":"getTokenConfig","inputs":[{"name":"token","type":"address","internalType":"address"}],"outputs":[{"name":"","type":"tuple","internalType":"struct xStocksGrid.TokenConfig","components":[{"name":"active","type":"bool","internalType":"bool"},{"name":"annualVolBps","type":"uint256","internalType":"uint256"},{"name":"tickSizeUsdc","type":"uint256","internalType":"uint256"},{"name":"bucketSeconds","type":"uint256","internalType":"uint256"},{"name":"houseEdgeBps","type":"uint256","internalType":"uint256"},{"name":"minBetUsdc","type":"uint256","internalType":"uint256"},{"name":"maxBetUsdc","type":"uint256","internalType":"uint256"},{"name":"gridWidth","type":"uint8","internalType":"uint8"},{"name":"gridHalfHeight","type":"uint8","internalType":"uint8"},{"name":"openBoostBps","type":"uint256","internalType":"uint256"},{"name":"closeBoostBps","type":"uint256","internalType":"uint256"},{"name":"afterHoursBps","type":"uint256","internalType":"uint256"}]}],"stateMutability":"view"},{"type":"function","name":"lockedGridTokens","inputs":[{"name":"","type":"address","internalType":"address"}],"outputs":[{"name":"","type":"uint256","internalType":"uint256"}],"stateMutability":"view"},{"type":"function","name":"lpShares","inputs":[{"name":"","type":"address","internalType":"address"},{"name":"","type":"address","internalType":"address"}],"outputs":[{"name":"","type":"uint256","internalType":"uint256"}],"stateMutability":"view"},{"type":"function","name":"nextBetId","inputs":[],"outputs":[{"name":"","type":"uint256","internalType":"uint256"}],"stateMutability":"view"},{"type":"function","name":"owner","inputs":[],"outputs":[{"name":"","type":"address","internalType":"address"}],"stateMutability":"view"},{"type":"function","name":"ownerFundPool","inputs":[{"name":"token","type":"address","internalType":"address"},{"name":"gdUsdAmount","type":"uint256","internalType":"uint256"}],"outputs":[],"stateMutability":"nonpayable"},{"type":"function","name":"paused","inputs":[],"outputs":[{"name":"","type":"bool","internalType":"bool"}],"stateMutability":"view"},{"type":"function","name":"placeBet","inputs":[{"name":"token","type":"address","internalType":"address"},{"name":"priceTicks","type":"int8","internalType":"int8"},{"name":"timeBuckets","type":"uint8","internalType":"uint8"},{"name":"gridTokenAmount","type":"uint256","internalType":"uint256"}],"outputs":[{"name":"betId","type":"uint256","internalType":"uint256"}],"stateMutability":"nonpayable"},{"type":"function","name":"poolGdUsd","inputs":[{"name":"","type":"address","internalType":"address"}],"outputs":[{"name":"","type":"uint256","internalType":"uint256"}],"stateMutability":"view"},{"type":"function","name":"previewMultiplier","inputs":[{"name":"token","type":"address","internalType":"address"},{"name":"priceTicks","type":"int8","internalType":"int8"},{"name":"timeBuckets","type":"uint8","internalType":"uint8"}],"outputs":[{"name":"multiplier","type":"uint256","internalType":"uint256"},{"name":"probability","type":"uint256","internalType":"uint256"},{"name":"targetPrice","type":"uint256","internalType":"uint256"},{"name":"payoutFor100","type":"uint256","internalType":"uint256"}],"stateMutability":"view"},{"type":"function","name":"priceFeed","inputs":[],"outputs":[{"name":"","type":"address","internalType":"contract PriceFeed"}],"stateMutability":"view"},{"type":"function","name":"redeemForUsdc","inputs":[{"name":"token","type":"address","internalType":"address"},{"name":"gridTokenAmount","type":"uint256","internalType":"uint256"}],"outputs":[{"name":"usdcOut","type":"uint256","internalType":"uint256"}],"stateMutability":"nonpayable"},{"type":"function","name":"renounceOwnership","inputs":[],"outputs":[],"stateMutability":"nonpayable"},{"type":"function","name":"resolveBet","inputs":[{"name":"betId","type":"uint256","internalType":"uint256"}],"outputs":[],"stateMutability":"nonpayable"},{"type":"function","name":"resolveBets","inputs":[{"name":"betIds","type":"uint256[]","internalType":"uint256[]"}],"outputs":[],"stateMutability":"nonpayable"},{"type":"function","name":"setPaused","inputs":[{"name":"p","type":"bool","internalType":"bool"}],"outputs":[],"stateMutability":"nonpayable"},{"type":"function","name":"setPriceFeed","inputs":[{"name":"pf","type":"address","internalType":"address"}],"outputs":[],"stateMutability":"nonpayable"},{"type":"function","name":"setTokenActive","inputs":[{"name":"token","type":"address","internalType":"address"},{"name":"active","type":"bool","internalType":"bool"}],"outputs":[],"stateMutability":"nonpayable"},{"type":"function","name":"shareNAV","inputs":[{"name":"token","type":"address","internalType":"address"}],"outputs":[{"name":"","type":"uint256","internalType":"uint256"}],"stateMutability":"view"},{"type":"function","name":"tokenConfigs","inputs":[{"name":"","type":"address","internalType":"address"}],"outputs":[{"name":"active","type":"bool","internalType":"bool"},{"name":"annualVolBps","type":"uint256","internalType":"uint256"},{"name":"tickSizeUsdc","type":"uint256","internalType":"uint256"},{"name":"bucketSeconds","type":"uint256","internalType":"uint256"},{"name":"houseEdgeBps","type":"uint256","internalType":"uint256"},{"name":"minBetUsdc","type":"uint256","internalType":"uint256"},{"name":"maxBetUsdc","type":"uint256","internalType":"uint256"},{"name":"gridWidth","type":"uint8","internalType":"uint8"},{"name":"gridHalfHeight","type":"uint8","internalType":"uint8"},{"name":"openBoostBps","type":"uint256","internalType":"uint256"},{"name":"closeBoostBps","type":"uint256","internalType":"uint256"},{"name":"afterHoursBps","type":"uint256","internalType":"uint256"}],"stateMutability":"view"},{"type":"function","name":"totalShares","inputs":[{"name":"","type":"address","internalType":"address"}],"outputs":[{"name":"","type":"uint256","internalType":"uint256"}],"stateMutability":"view"},{"type":"function","name":"transferOwnership","inputs":[{"name":"newOwner","type":"address","internalType":"address"}],"outputs":[],"stateMutability":"nonpayable"},{"type":"function","name":"usdc","inputs":[],"outputs":[{"name":"","type":"address","internalType":"contract IERC20"}],"stateMutability":"view"},{"type":"function","name":"usdcPool","inputs":[{"name":"","type":"address","internalType":"address"}],"outputs":[{"name":"","type":"uint256","internalType":"uint256"}],"stateMutability":"view"},{"type":"function","name":"withdrawLiquidity","inputs":[{"name":"token","type":"address","internalType":"address"},{"name":"shares","type":"uint256","internalType":"uint256"}],"outputs":[],"stateMutability":"nonpayable"},{"type":"event","name":"BetPlaced","inputs":[{"name":"betId","type":"uint256","indexed":true,"internalType":"uint256"},{"name":"player","type":"address","indexed":true,"internalType":"address"},{"name":"token","type":"address","indexed":true,"internalType":"address"},{"name":"targetPrice","type":"uint256","indexed":false,"internalType":"uint256"},{"name":"expiryTs","type":"uint256","indexed":false,"internalType":"uint256"},{"name":"multiplier","type":"uint256","indexed":false,"internalType":"uint256"},{"name":"gridTokenAmount","type":"uint256","indexed":false,"internalType":"uint256"},{"name":"priceTicks","type":"int8","indexed":false,"internalType":"int8"},{"name":"timeBuckets","type":"uint256","indexed":false,"internalType":"uint256"}],"anonymous":false},{"type":"event","name":"BetResolved","inputs":[{"name":"betId","type":"uint256","indexed":true,"internalType":"uint256"},{"name":"won","type":"bool","indexed":false,"internalType":"bool"},{"name":"payout","type":"uint256","indexed":false,"internalType":"uint256"}],"anonymous":false},{"type":"event","name":"LiquidityDeposited","inputs":[{"name":"lp","type":"address","indexed":true,"internalType":"address"},{"name":"token","type":"address","indexed":true,"internalType":"address"},{"name":"usdcAmount","type":"uint256","indexed":false,"internalType":"uint256"},{"name":"shares","type":"uint256","indexed":false,"internalType":"uint256"}],"anonymous":false},{"type":"event","name":"LiquidityWithdrawn","inputs":[{"name":"lp","type":"address","indexed":true,"internalType":"address"},{"name":"token","type":"address","indexed":true,"internalType":"address"},{"name":"usdcAmount","type":"uint256","indexed":false,"internalType":"uint256"},{"name":"shares","type":"uint256","indexed":false,"internalType":"uint256"}],"anonymous":false},{"type":"event","name":"OwnershipTransferred","inputs":[{"name":"previousOwner","type":"address","indexed":true,"internalType":"address"},{"name":"newOwner","type":"address","indexed":true,"internalType":"address"}],"anonymous":false},{"type":"event","name":"Paused","inputs":[{"name":"paused","type":"bool","indexed":false,"internalType":"bool"}],"anonymous":false},{"type":"event","name":"TokenConfigured","inputs":[{"name":"token","type":"address","indexed":true,"internalType":"address"}],"anonymous":false},{"type":"event","name":"UsdcDeposited","inputs":[{"name":"user","type":"address","indexed":true,"internalType":"address"},{"name":"token","type":"address","indexed":true,"internalType":"address"},{"name":"usdcAmount","type":"uint256","indexed":false,"internalType":"uint256"},{"name":"gridTokens","type":"uint256","indexed":false,"internalType":"uint256"}],"anonymous":false},{"type":"event","name":"UsdcRedeemed","inputs":[{"name":"user","type":"address","indexed":true,"internalType":"address"},{"name":"token","type":"address","indexed":true,"internalType":"address"},{"name":"gridTokens","type":"uint256","indexed":false,"internalType":"uint256"},{"name":"usdcAmount","type":"uint256","indexed":false,"internalType":"uint256"}],"anonymous":false},{"type":"event","name":"WinningsClaimed","inputs":[{"name":"betId","type":"uint256","indexed":true,"internalType":"uint256"},{"name":"player","type":"address","indexed":true,"internalType":"address"},{"name":"gridTokens","type":"uint256","indexed":false,"internalType":"uint256"}],"anonymous":false},{"type":"error","name":"OwnableInvalidOwner","inputs":[{"name":"owner","type":"address","internalType":"address"}]},{"type":"error","name":"OwnableUnauthorizedAccount","inputs":[{"name":"account","type":"address","internalType":"address"}]},{"type":"error","name":"ReentrancyGuardReentrantCall","inputs":[]},{"type":"error","name":"SafeERC20FailedOperation","inputs":[{"name":"token","type":"address","internalType":"address"}]}],"bytecode":{"object":"0x60a03461020957601f613c7b38819003918201601f19168301916001600160401b0383118484101761020d578084926060946040528339810103126102095761004781610221565b90610060604061005960208401610221565b9201610221565b9033156101f6575f8054336001600160a01b0319821681178355604051959290916001600160a01b0316907f8be0079c531659141344cd1fd0a4f28419497f9722a3daafe3b4186f6b6457e09080a360017f9b779b17422d0df92223018b32b4d1fa46e071723d6817e2486d003becc55f008190556003556001600160a01b03169283156101c857506001600160a01b0316908115610192576001600160a01b03169182156101605760805260018060a01b0319600254161760025560018060a01b03196001541617600155604051613a459081610236823960805181818161027d015281816108c601528181611fcf0152818161205201526125d70152f35b60405162461bcd60e51b815260206004820152600a6024820152691e995c9bc819d91554d160b21b6044820152606490fd5b60405162461bcd60e51b815260206004820152600e60248201526d1e995c9bc81c1c9a58d95199595960921b6044820152606490fd5b62461bcd60e51b81526020600482015260096024820152687a65726f207573646360b81b6044820152606490fd5b631e4fbdf760e01b5f525f60045260245ffd5b5f80fd5b634e487b7160e01b5f52604160045260245ffd5b51906001600160a01b03821682036102095756fe60806040526004361015610011575f80fd5b5f5f3560e01c806306d47de9146124735780630d2eab9c1461244f57806316c38b3c146123e157806316f6bc7e146123a85780631b69dc5f146122eb5780631c6e81221461151057806322af00fa1461223457806339b41b4a14611ffe5780633e413bee14611fb9578063477f072014611f645780634c36c36e14611f475780635c31a6a8146118905780635c975abb1461186a57806361f14f1114611785578063677bd9ff146115995780636a9a7ffe146115395780636f3b444d14611510578063715018a6146114b6578063724e78da1461143f578063741bef1a146114165780638da5cb5b146113ef5780639051cce9146112235780639aca279214611205578063a0eafae6146111cc578063a14b60ea146111a0578063a8159ce51461108b578063b36d0c2014610bae578063bf6b874e14610b75578063c88a22e714610b32578063cb67e3b1146109fb578063cceacc6614610860578063d7d0c58214610827578063e2f1b792146107ce578063ec9c23c614610706578063f2fde38b14610680578063f81eabfd1461037f5763facef3c3146101b1575f80fd5b3461037c57604036600319011261037c576101ca612705565b6024356101d5612f08565b6101de82613021565b5080156103495764e8d4a5100081049182156103135760018060a01b031690818452600660205261021583604086205410156127de565b6001546001600160a01b0316803b1561030f57604051632770a7eb60e21b8152336004820152602481018390529085908290604490829084905af18015610304576102eb575b506040848360209652600686522061027484825461281e565b90556102a183337f0000000000000000000000000000000000000000000000000000000000000000612f7a565b60405190815282848201527ff10a8b5b5bfcf1434e5df636fdc5d0933c1dda200389a7887834e62d0eb586bd60403392a360015f5160206139f05f395f51905f5255604051908152f35b6102f68580926128b1565b610300575f61025b565b8380fd5b6040513d87823e3d90fd5b8480fd5b60405162461bcd60e51b815260206004820152600e60248201526d726f756e647320746f207a65726f60901b6044820152606490fd5b60405162461bcd60e51b815260206004820152600b60248201526a1e995c9bc8185b5bdd5b9d60aa1b6044820152606490fd5b80fd5b503461037c5761012036600319011261037c5761039a612705565b602435604435606435916084359160a4359460c4359060e4359160ff831680930361067c57610104359160ff8316809303610678576103d7612ffb565b6001600160a01b03169788156106465785156106165784156105e55787156105b25761138887101561057f57801561054f5780821061051e5789966040519861041f8a61285c565b60018a5260208a0197885260408a0196875260608a0190815260808a0191825260a08a0192835260c08a0193845260e08a019586526101008a019485526101208a01966161a888526101408b01986146508a528c6101608d019b610fa08d52528d6004602052604090209b5115156104a3908d9060ff801983541691151516179055565b5160018c01555160028b01555160038a015551600489015551600588015551600687015560078601915160ff168254915160081b61ff00169161ffff1916171790555160088401555160098301555190600a01557f3de6bfe55516f9cadcb09b7992370370609e179252c38173146ac026ecb40df08280a280f35b60405162461bcd60e51b815260206004820152600960248201526836b0bc101e1036b4b760b91b6044820152606490fd5b60405162461bcd60e51b81526020600482015260086024820152673d32b9379036b4b760c11b6044820152606490fd5b60405162461bcd60e51b815260206004820152600b60248201526a65646765203e3d2035302560a81b6044820152606490fd5b60405162461bcd60e51b815260206004820152600b60248201526a1e995c9bc8189d58dad95d60aa1b6044820152606490fd5b60405162461bcd60e51b81526020600482015260096024820152687a65726f207469636b60b81b6044820152606490fd5b60405162461bcd60e51b81526020600482015260086024820152671e995c9bc81d9bdb60c21b6044820152606490fd5b60405162461bcd60e51b815260206004820152600a6024820152693d32b937903a37b5b2b760b11b6044820152606490fd5b8980fd5b8880fd5b503461037c57602036600319011261037c5761069a612705565b6106a2612ffb565b6001600160a01b031680156106f25781546001600160a01b03198116821783556001600160a01b03167f8be0079c531659141344cd1fd0a4f28419497f9722a3daafe3b4186f6b6457e08380a380f35b631e4fbdf760e01b82526004829052602482fd5b503461037c57604036600319011261037c57610720612705565b6024359061072c612ffb565b61073581613021565b5060015483906001600160a01b0316803b156107ca576040516340c10f1960e01b8152306004820152602481018590529082908290604490829084905af180156107bf576107a6575b50506001600160a01b03168252600760205260408220805490916107a191612908565b905580f35b816107b0916128b1565b6107bb57825f61077e565b8280fd5b6040513d84823e3d90fd5b5080fd5b503461037c57604036600319011261037c576107e8612705565b60243580151581036107bb5761082491610800612ffb565b60018060a01b031683526004602052604083209060ff801983541691151516179055565b80f35b503461037c57602036600319011261037c576020906040906001600160a01b0361084f612705565b168152600683522054604051908152f35b503461037c57604036600319011261037c5761087a612705565b602435610885612f08565b61089760ff60025460a01c16156128d3565b6108a082613021565b5080156109ca5764e8d4a5100081029181830464e8d4a51000036109b6576108ea8230337f0000000000000000000000000000000000000000000000000000000000000000613109565b60018060a01b03169081845260066020526040842061090a828254612908565b90556001546001600160a01b0316803b1561030f576040516340c10f1960e01b8152336004820152602481018590529085908290604490829084905af18015610304576109a1575b506020935060405190815282848201527fa503dc89e057034dcb442d35e3e3de08b51220c607f51626bbdcac29a90deabd60403392a360015f5160206139f05f395f51905f5255604051908152f35b6109ac8580926128b1565b6103005783610952565b634e487b7160e01b84526011600452602484fd5b60405162461bcd60e51b81526020600482015260096024820152687a65726f207573646360b81b6044820152606490fd5b503461037c57602036600319011261037c57604061018091610a1b612705565b610a23612eb0565b506001600160a01b03168152600460205220604051610a418161285c565b808060ff61010081838188541615159788825260018101549860208301998a526002820154604084019081526003830154606085019081526004840154916080860192835260058501549360a08701948552610160600a60068801549760c08a019889528a60078201549c8b828f9d60e0019d168d52019c60081c168c5261012060088201549e019d8e5261014060098201549f019e8f5201549d019c8d5260206040519e8f928352519101525160408d01525160608c01525160808b01525160a08a01525160c0890152511660e08701525116610100850152516101208401525161014083015251610160820152f35b503461037c57604036600319011261037c576020906040906001600160a01b03610b5a612705565b168152600b8352818120602435825283522054604051908152f35b503461037c57602036600319011261037c576020906040906001600160a01b03610b9d612705565b168152600983522054604051908152f35b503461037c57602036600319011261037c576001600160a01b03610bd0612705565b16908181526004602052604081209160405192610bec8461285c565b60ff815416159081158552600181015460208601526002810154604086019081526003820154606087015260048201546080870152600582015460a0870152600682015460c0870152600782015492600a60e088019360ff8616855260ff6101008a019660081c16865260088101546101208a015260098101546101408a01520154610160880152611059576002546040516353084eff60e01b815260048101869052936001600160a01b0390911690602085602481855afa94851561104e578795611016575b508415610fe6578051936101fe60ff86169560011b169480860460021490151715610fd2575196979660ff1692610ce985612e0b565b97610cf7604051998a6128b1565b858952601f19610d0687612e0b565b018a5b818110610fbf57505060a0610d1d87612e23565b986024604051809781936374544e3b60e11b835260048301525afa8015610fb4578a80958182918394610f76575b5090610d899493929160409e9d9e5198610d648a612879565b151589521515602089015215156040880152151560608701521515608086015261335a565b91885b868110610e66578a8a8a8a60405192606084016060855285518091526080850190602060808260051b88010197019183905b828210610e0d5750505050838503602085015260208084519687815201930190945b808610610df557505082935060408301520390f35b90926020806001928651815201940195019490610de0565b9091929397607f19888203018252845190602080835192838152019201908a905b808210610e4e57509199956020908101959460010193019150610dbe9050565b90919260208060019286518152019401920190610e2e565b8151999a9960ff1680821015610f475750610e858160ff84511661281e565b60015b15610f2e57610ea1610e9b85518361277f565b8a612908565b610eab838c612e9c565b52610eb587612e23565b610ebf838d612e9c565b52610eca828c612e9c565b508b5b878110610ee1575050600101999899610d8c565b60018101808211610f1a57908c610f1382610f0d878f8d8d610f069260019a8c6133e6565b5094612e9c565b51612e9c565b5201610ecd565b634e487b7160e01b8e52601160045260248efd5b610f42610f3c85518361277f565b8a61281e565b610ea1565b610f51908261281e565b60018101809111610f62578b610e88565b634e487b7160e01b8c52601160045260248cfd5b92505050610d89929550610fa2915060a03d60a011610fad575b610f9a81836128b1565b810190612e55565b939794909290610d4b565b503d610f90565b6040513d8c823e3d90fd5b60606020828d0181019190915201610d09565b634e487b7160e01b88526011600452602488fd5b60405162461bcd60e51b81526020600482015260086024820152676e6f20707269636560c01b6044820152606490fd5b9094506020813d602011611046575b81611032602093836128b1565b810103126110425751935f610cb3565b5f80fd5b3d9150611025565b6040513d89823e3d90fd5b60405162461bcd60e51b815260206004820152600a6024820152696e6f742061637469766560b01b6044820152606490fd5b503461037c5761109a3661272b565b825b8181106110a7578380f35b6110b2818385612d8c565b35845260056020526040842080549091906001600160a01b0316156111975760ff6007830154166111975760048201549182421061118d5760025460019190910154604051630794df9560e11b81526001600160a01b039182166004820152602481019490945260809184916044918391165afa801561030457600192869161115b575b50156111565761115061114a828587612d8c565b35612aa6565b0161109c565b611150565b61117c915060803d8111611186575b61117481836128b1565b810190612a7d565b925050505f611136565b503d61116a565b5060019150611150565b60019150611150565b503461037c57602036600319011261037c5760206111c46111bf612705565b612db0565b604051908152f35b503461037c57602036600319011261037c576020906040906001600160a01b036111f4612705565b168152600a83522054604051908152f35b503461037c578060031936011261037c576020600354604051908152f35b503461037c576112323661272b565b9061123b612f08565b8291839184915b80831061132a5750505081156112f2576001600160a01b03169081156112bd57816112a9928452600760205261127e82604086205410156127de565b835260076020526040832061129482825461281e565b905560015433906001600160a01b0316612f7a565b60015f5160206139f05f395f51905f525580f35b60405162461bcd60e51b815260206004820152600d60248201526c6e6f2076616c6964206265747360981b6044820152606490fd5b60405162461bcd60e51b815260206004820152601060248201526f6e6f7468696e6720746f20636c61696d60801b6044820152606490fd5b909193611338858385612d8c565b358652600560205260408620933360018060a01b03865416036113e457600785019081549060ff82161580156113d7575b80156113c9575b6113bc5750916113b2916201000060019462ff0000191617905560646113ab848060a01b03858901541697600660058201549101549061277f565b0490612908565b945b019190611242565b95505050936001906113b4565b5060ff8260081c1615611370565b5060ff8260101c16611369565b9350936001906113b4565b503461037c578060031936011261037c57546040516001600160a01b039091168152602090f35b503461037c578060031936011261037c576002546040516001600160a01b039091168152602090f35b503461037c57602036600319011261037c57611459612705565b611461612ffb565b6001600160a01b0316801561148b576bffffffffffffffffffffffff60a01b600254161760025580f35b606460405162461bcd60e51b81526020600482015260046024820152637a65726f60e01b6044820152fd5b503461037c578060031936011261037c576114cf612ffb565b80546001600160a01b03198116825581906001600160a01b03167f8be0079c531659141344cd1fd0a4f28419497f9722a3daafe3b4186f6b6457e08280a380f35b503461037c578060031936011261037c576001546040516001600160a01b039091168152602090f35b503461037c57604036600319011261037c57611553612705565b60243591906001600160a01b03831683036107ca579060409160018060a01b031681526008602052209060018060a01b03165f52602052602060405f2054604051908152f35b503461037c57602036600319011261037c576004356115b6612f08565b80825260056020526040822080549091906001600160a01b031633036117515760078201805460ff81161561171d5760ff8160081c16156116ed5760ff8160101c166116b657620100009062ff00001916179055606461161f600584015460068501549061277f565b04916001808060a01b0391015416808452600760205261164583604086205410156127de565b835260076020526040832061165b83825461281e565b905560015461167690839033906001600160a01b0316612f7a565b6040519182527f5380cf6fe903b40c6d5a9e0dfbca2f3a423f0a21520b4d5947ed5169bdba946d60203393a360015f5160206139f05f395f51905f525580f35b60405162461bcd60e51b815260206004820152600f60248201526e185b1c9958591e4818db185a5b5959608a1b6044820152606490fd5b60405162461bcd60e51b815260206004820152600860248201526718995d081b1bdcdd60c21b6044820152606490fd5b60405162461bcd60e51b815260206004820152600c60248201526b1b9bdd081c995cdbdb1d995960a21b6044820152606490fd5b60405162461bcd60e51b815260206004820152600c60248201526b1b9bdd081e5bdd5c8818995d60a21b6044820152606490fd5b503461037c57602036600319011261037c576080906004358152600560205260408120906101406064611851604051946117be8661282b565b60018060a01b038154168652600181015460018060a01b038116602088015260a01c850b604087015260028101546060870152600381015487870152600481015460a087015260058101548060c088015260076006830154928360e08a015201549560ff87161515978861010082015260ff808960081c161515988961012084015260101c16151596879101525061277f565b0491604051938452602084015260408301526060820152f35b503461037c578060031936011261037c57602060ff60025460a01c166040519015158152f35b503461037c57608036600319011261037c576118aa612705565b6024359081830b808303610300576118c061271b565b906064356118cc612f08565b600254946118e060ff8760a01c16156128d3565b8215611f0c576118ef85613021565b6040516374544e3b60e11b81526001600160a01b038781166004830181905298169064e8d4a51000850460a082602481865afa918215611f01578b928c918d91611ed7575b5060a08601519360c08701928351925f14611e96575050505062989680915b8110611e615711611e2c576020602491604051928380926353084eff60e01b82528c60048301525afa908115611e21578991611def575b508015611db45760ff861695600187101580611da3575b15611d6d576119b1938893613172565b9150956119ca60646119c3858761277f565b0491612f40565b8015611d3b57611f408102908104611f4003611d275761271090048111611ce25787895260076020526040892054888a52600b60205260408a20838b52602052611a188260408c2054612908565b611f408202828104611f401483151715610f6257612710900410611c9d5760011c8411611c5857600154611a5a908590309033906001600160a01b0316613109565b878952600760205260408920611a71858254612908565b9055878952600a60205260408920611a8a828254612908565b9055878952600b60205260408920828a52602052611aad60408a20918254612908565b9055600354975f198914611c4457600189016003558860405191611ad08361282b565b33835260208084018b815260408086018a8152606087018c8152608088018e815260a0808a018b815260c08b018e815260e08c018e81526101008d018b81526101208e018c81526101408f018d81529d8d5260059b8c905298909b209c518d546001600160a01b039182166001600160a01b0319909116178e55985160018e018054985190951b60ff60a01b1699166001600160a81b03199097169690961797909717909155915160028a015551600389015551600488015591519286019290925551600685015590516007909301805460ff191660ff9415159490941693909317835551825461ff00191690151560081b61ff001617825551151581549060101b62ff0000169062ff00001916179055604051958652602086015260408501526060840152608083015260a082015282339160c07facf426b9dcc14a217d75dc57a7cd275b36e9a1daab25da3dedf9fc4768b9201691a460015f5160206139f05f395f51905f5255604051908152602090f35b634e487b7160e01b81526011600452602490fd5b60405162461bcd60e51b815260206004820152601f60248201527f6578706f737572653a2073696e676c6520626574203e2035302520706f6f6c006044820152606490fd5b60405162461bcd60e51b815260206004820152601b60248201527f6578706f737572653a206275636b6574203e2038302520706f6f6c00000000006044820152606490fd5b60405162461bcd60e51b815260206004820152601f60248201527f6578706f737572653a2073696e676c6520626574203e2038302520706f6f6c006044820152606490fd5b634e487b7160e01b8a52601160045260248afd5b60405162461bcd60e51b815260206004820152600a602482015269706f6f6c20656d70747960b01b6044820152606490fd5b60405162461bcd60e51b815260206004820152600e60248201526d34b73b30b634b21031b7b63ab6b760911b6044820152606490fd5b5060ff60e0840151168711156119a1565b60405162461bcd60e51b81526020600482015260136024820152727072696365206e6f7420617661696c61626c6560681b6044820152606490fd5b90506020813d602011611e19575b81611e0a602093836128b1565b8101031261104257515f61198a565b3d9150611dfd565b6040513d8b823e3d90fd5b60405162461bcd60e51b815260206004820152600d60248201526c18589bdd99481b585e0818995d609a1b6044820152606490fd5b60405162461bcd60e51b815260206004820152600d60248201526c18995b1bddc81b5a5b8818995d609a1b6044820152606490fd5b15611ea75750505160011c91611953565b93919093611eb6575b50611953565b9250600381029080820460031490151715610f6257915160011c915f611eb0565b915050611ef491925060a03d60a011610fad57610f9a81836128b1565b929493509190505f611934565b6040513d8d823e3d90fd5b60405162461bcd60e51b81526020600482015260136024820152727069636b2061206e6f6e2d7a65726f20726f7760681b6044820152606490fd5b503461037c57602036600319011261037c57610824600435612aa6565b503461037c57606036600319011261037c57611f7e612705565b906024359081810b820361037c576080611fa18484611f9b61271b565b91612915565b91604051938452602084015260408301526060820152f35b503461037c578060031936011261037c576040517f00000000000000000000000000000000000000000000000000000000000000006001600160a01b03168152602090f35b503461037c57604036600319011261037c57612018612705565b60243590612024612f08565b61203660ff60025460a01c16156128d3565b61203f81613021565b50629896808210612202576120768230337f0000000000000000000000000000000000000000000000000000000000000000613109565b60018060a01b031690818352600660205260408320612096828254612908565b905564e8d4a51000810281810464e8d4a5100014821517156109b65760015484906001600160a01b0316803b156107ca576040516340c10f1960e01b8152306004820152602481018490529082908290604490829084905af180156107bf576121ed575b50839052600760205260408420612112828254612908565b9055828452600960205260408420549083855260076020526040852054821580156121e4575b156121c357505050805b338452600860205260408420835f5260205260405f20612163828254612908565b905582845260096020526040842061217c828254612908565b905560405191825260208201527f44504979f82d498dad8a0687fc02e140be70b1b4ab3b9e23c6ffc1d04410194a60403392a360015f5160206139f05f395f51905f525580f35b6121df926121d4836121da9361281e565b9261277f565b6127d4565b612142565b50818114612138565b816121f7916128b1565b61030057835f6120fa565b60405162461bcd60e51b815260206004820152600a60248201526906d696e204c50202431360b41b6044820152606490fd5b503461037c57602036600319011261037c57610160906004358152600560205260ff604082209160018060a01b0383541692600181015491600282015460038301546004840154916005850154936007600687015496015496604051998a5260018060a01b03811660208b015260a01c900b60408901526060880152608087015260a086015260c085015260e08401528181161515610100840152818160081c16151561012084015260101c161515610140820152f35b503461037c57602036600319011261037c57610180906040906001600160a01b03612314612705565b16815260046020522060ff81541690600181015490600281015460ff600383015460048401546005850154600686015491600787015493600888015496600a60098a0154990154996040519b15158c5260208c015260408b015260608a0152608089015260a088015260c087015281811660e087015260081c16610100850152610120840152610140830152610160820152f35b503461037c57602036600319011261037c576020906040906001600160a01b036123d0612705565b168152600783522054604051908152f35b503461037c57602036600319011261037c576004358015158091036107ca5760207f0e2fb031ee032dc02d8011dc50b816eb450cf856abd8261680dac74f72165bd29161242c612ffb565b6002805460ff60a01b191660a083901b60ff60a01b16179055604051908152a180f35b503461037c57602036600319011261037c5760206111c461246e612705565b612f40565b50346110425760403660031901126110425761248d612705565b602435612498612f08565b335f52600860205260405f2060018060a01b0383165f526020528060405f2054106126ca576001600160a01b0382165f81815260096020526040902054909290801561269b576121da6124ed6124f393612f40565b8461277f565b9081156126605764e8d4a51000820491835f52600660205261251b8360405f205410156127de565b335f52600860205260405f20845f5260205260405f2061253c83825461281e565b9055835f52600960205260405f2061255583825461281e565b90556001546001600160a01b0316803b1561104257604051632770a7eb60e21b815230600482015260248101839052905f908290604490829084905af1801561265557612640575b5083855260076020526125b56040862091825461281e565b90558284526006602052604084206125ce83825461281e565b90556125fb82337f0000000000000000000000000000000000000000000000000000000000000000612f7a565b60405191825260208201527fba0b893b2f314a229997e335266881b5ac6b290bd350d2c23cc57160b77882b860403392a360015f5160206139f05f395f51905f525580f35b61264d9195505f906128b1565b5f935f61259d565b6040513d5f823e3d90fd5b60405162461bcd60e51b81526020600482015260136024820152726e6f7468696e6720746f20776974686472617760681b6044820152606490fd5b60405162461bcd60e51b81526020600482015260076024820152661b9bc81c1bdbdb60ca1b6044820152606490fd5b60405162461bcd60e51b8152602060048201526013602482015272696e73756666696369656e742073686172657360681b6044820152606490fd5b600435906001600160a01b038216820361104257565b6044359060ff8216820361104257565b9060206003198301126110425760043567ffffffffffffffff811161104257826023820112156110425780600401359267ffffffffffffffff84116110425760248460051b83010111611042576024019190565b8181029291811591840414171561279257565b634e487b7160e01b5f52601160045260245ffd5b80156127c0576ec097ce7bc90715b34b9f10000000000490565b634e487b7160e01b5f52601260045260245ffd5b81156127c0570490565b156127e557565b60405162461bcd60e51b81526020600482015260116024820152701c1bdbdb081a5b9cdd59999a58da595b9d607a1b6044820152606490fd5b9190820391821161279257565b610160810190811067ffffffffffffffff82111761284857604052565b634e487b7160e01b5f52604160045260245ffd5b610180810190811067ffffffffffffffff82111761284857604052565b60a0810190811067ffffffffffffffff82111761284857604052565b60e0810190811067ffffffffffffffff82111761284857604052565b90601f8019910116810190811067ffffffffffffffff82111761284857604052565b156128da57565b60405162461bcd60e51b81526020600482015260066024820152651c185d5cd95960d21b6044820152606490fd5b9190820180921161279257565b909160018060a01b03821690815f52600460205260405f20936040519461293b8661285c565b600a60ff82541615918215885260018101546020890152600281015460408901526003810154606089015260048101546080890152600581015460a0890152600681015460c089015260ff600782015481811660e08b015260081c16610100890152600881015461012089015260098101546101408901520154610160870152612a2d576002546040516353084eff60e01b81526004810194909452602090849060249082906001600160a01b03165afa928315612655575f93612a3c575b508215612a2d57612a0a94613172565b50919290919068056bc75e2d631000008085029081048503612792576064900490565b50505050505f905f905f905f90565b9092506020813d602011612a68575b81612a58602093836128b1565b810103126110425751915f6129fa565b3d9150612a4b565b5190811515820361104257565b919082608091031261104257815191602081015191612aa3606060408401519301612a70565b90565b5f81815260056020526040902080546001600160a01b031615612d57576007810180549060ff8216612d1f5760048301805490814210612ce657600254600186018054604051630794df9560e11b81526001600160a01b0380831660048301526024820196909652909791949192909160809183916044918391165afa918215612655575f925f925f91612cbd575b5015612c7857612ba7604097600197606495612bb7955f7fe1b4cc7b572a56466df9203312ded49052ff26393efd614a3f8658c98ec0fc389d60a01c810b135f14612c675750600385015411159889925b61ff001990911661ffff199091161791151560081b61ff0016919091179055565b600660058201549101549061277f565b049160018060a01b03815416805f52600a60205283865f20541015612c4a575b50546001600160a01b03165f818152600b6020908152868220935480835293905285902054831115612c23575b50508115612c1c575b825191151582526020820152a2565b505f612c0d565b5f52600b602052835f20905f52602052825f20612c4182825461281e565b90555f80612c04565b5f52600a602052845f20612c5f84825461281e565b90555f612bd7565b905060038501541015988992612b86565b60405162461bcd60e51b815260206004820152601e60248201527f7265736f6c7574696f6e2064617461206e6f74207075736865642079657400006044820152606490fd5b91935050612cda915060803d6080116111865761117481836128b1565b9250929092915f612b35565b60405162461bcd60e51b8152602060048201526011602482015270189d58dad95d081b9bdd0818db1bdcd959607a1b6044820152606490fd5b60405162461bcd60e51b815260206004820152601060248201526f185b1c9958591e481c995cdbdb1d995960821b6044820152606490fd5b60405162461bcd60e51b815260206004820152600d60248201526c18995d081b9bdd08199bdd5b99609a1b6044820152606490fd5b9190811015612d9c5760051b0190565b634e487b7160e01b5f52603260045260245ffd5b6001600160a01b03165f81815260096020526040902054908115612e02575f52600760205264e8d4a5100060405f20540490620f4240820291808304620f4240149015171561279257612aa3916127d4565b5050620f424090565b67ffffffffffffffff81116128485760051b60200190565b90612e2d82612e0b565b612e3a60405191826128b1565b8281528092612e4b601f1991612e0b565b0190602036910137565b908160a091031261104257612e6981612a70565b91612e7660208301612a70565b91612e8360408201612a70565b91612aa36080612e9560608501612a70565b9301612a70565b8051821015612d9c5760209160051b010190565b60405190612ebd8261285c565b5f610160838281528260208201528260408201528260608201528260808201528260a08201528260c08201528260e08201528261010082015282610120820152826101408201520152565b60025f5160206139f05f395f51905f525414612f315760025f5160206139f05f395f51905f5255565b633ee5aeb560e01b5f5260045ffd5b6001600160a01b03165f90815260076020908152604080832054600a9092529091205480821115612f7457612aa39161281e565b50505f90565b916040519163a9059cbb60e01b5f5260018060a01b031660045260245260205f60448180865af19060015f5114821615612fda575b60405215612fba5750565b635274afe760e01b5f9081526001600160a01b0391909116600452602490fd5b906001811516612ff257823b15153d15161690612faf565b503d5f823e3d90fd5b5f546001600160a01b0316330361300e57565b63118cdaa760e01b5f523360045260245ffd5b613029612eb0565b5060018060a01b03165f52600460205260405f209060405161304a8161285c565b600a60ff84541615938415835260018101546020840152600281015460408401526003810154606084015260048101546080840152600581015460a0840152600681015460c084015260ff600782015481811660e086015260081c16610100840152600881015461012084015260098101546101408401520154610160820152916130d157565b60405162461bcd60e51b815260206004820152601060248201526f746f6b656e206e6f742061637469766560801b6044820152606490fd5b6040516323b872dd60e01b5f9081526001600160a01b039384166004529290931660245260449390935260209060648180865af19060015f511482161561315a575b6040525f60605215612fba5750565b906001811516612ff257823b15153d1516169061314b565b91935f91820b9182139291831561334757925b156132e8576131a161319b60408401518561277f565b85612908565b935b6131d660608401966131d060ff6131c66131be8b51426127d4565b8b519061277f565b921698518961277f565b90612908565b6002546040516374544e3b60e11b81526001600160a01b0394851660048201819052929894909116959193919060a0816024818a5afa908115612655575f955f905f925f946132bb575b5060a0906024604051809c81936374544e3b60e11b835260048301525afa9788156126555761328d995f99613292575b5061325a9061335a565b96604051986132688a612879565b15158952151560208901521515604088015215156060870152151560808601526133e6565b929093565b61325a9199506132b09060a03d60a011610fad57610f9a81836128b1565b505050509890613250565b9150925060a08097506132da92503d8811610fad57610f9a81836128b1565b935091979091929390613220565b6132f660408301518461277f565b8481101561330e57613308908561281e565b936131a3565b60405162461bcd60e51b81526020600482015260116024820152707461726765742062656c6f77207a65726f60781b6044820152606490fd5b600160ff1b8114612792575f0392613185565b5f60c060405161336981612895565b8281528260208201528260408201528260608201528260808201528260a08201520152602081015190604081015190606081015160808201516101208301519161016061014085015194015194604051966133c388612895565b8752602087015260408601526060850152608084015260a083015260c082015290565b9293831561362d5781156135ef5782156135b357613419613425918651608088015160a08901519060c08a015192613669565b9160408601519061277f565b670de0b6b3a7640000820291808304670de0b6b3a7640000149015171561279257670de0b6b3a7640000810290808204670de0b6b3a7640000149015171561279257613470906138e3565b6a1a1601fc4ea7109e000000916a0d0b00fe2753884f0000005b83811061358b5750916121da6134a7926127106134b3950461277f565b9260208501519061277f565b90670de0b6b3a7640000820291808304670de0b6b3a76400001490151715612792576134de916127d4565b811561357f57670de0b6b3a7640000810290808204670de0b6b3a764000014901517156127925761351791613512916127d4565b6136e6565b908115613575576060613529836127a6565b9101516127100361271081116127925761354e61271091662386f26fc100009361277f565b040491606e831061356c575b612710831161356557565b6127109250565b606e925061355a565b5050612710905f90565b50505061271090600190565b92508280156127c057806135ab916a1a1601fc4ea7109e00000004612908565b60011c61348a565b60405162461bcd60e51b8152602060048201526014602482015273477269644d6174683a207a65726f20707269636560601b6044820152606490fd5b60405162461bcd60e51b8152602060048201526016602482015275477269644d6174683a207a65726f206275636b65747360501b6044820152606490fd5b60405162461bcd60e51b8152602060048201526014602482015273477269644d6174683a207a65726f207469636b7360601b6044820152606490fd5b93919260808301516136c5578251156136b4575060208201516136a4575060400151613693575090565b6136a0906127109261277f565b0490565b90506136a091506127109261277f565b9150506136a091506127109261277f565b505050506107d08102908082046107d0149015171561279257612710900490565b6753444835ec58000081116138dd5780631386a4bc02631386a4bc8104820361279257670de0b6b3a76400009004633b9aca000180633b9aca00116127925780156127c0576b033b2e3c9fd0803ce800000004670de0b6b3a764000061374c828061277f565b0490670de0b6b3a7640000613761828461277f565b0490670de0b6b3a7640000613776828461277f565b0491670de0b6b3a764000061378b838561277f565b049180630f3064180290630f30641882040361279257816354b90d6d02916354b90d6d83040361279257670de0b6b3a7640000806137cb93049104612908565b81633f43c2f50291633f43c2f583040361279257670de0b6b3a76400006137f3920490612908565b91806310f5136002906310f51360820403612792578163569d571b029163569d571b83040361279257670de0b6b3a76400008061383293049104612908565b90818111156138c55761385c61385461386293671bc16d674ec800009361281e565b935b8061277f565b04613929565b633b9aca00810290808204633b9aca00149015171561279257633b9aca00916395681cb2613890920461277f565b04600181901b91906001600160ff1b0381160361279257670de0b6b3a764000082116138b857565b670de0b6b3a76400009150565b5050613862671bc16d674ec8000061385c5f93613856565b50600190565b90811561392457600182018083116127925760011c825b838210613905575050565b90925061391b8361391681846127d4565b612908565b60011c906138fa565b5f9150565b6801158e460913d000008110156139ea5780156139dd57670de0b6b3a7640000613953828061277f565b0490670de0b6b3a7640000613968828461277f565b0490670de0b6b3a764000061397d828461277f565b0492670de0b6b3a7640000613992838661277f565b0491670de0b6b3a7640000019283670de0b6b3a76400001161279257612aa39460186139d06139d09360066139d06139d89960789860011c90612908565b910490612908565b6127a6565b50670de0b6b3a764000090565b505f9056fe9b779b17422d0df92223018b32b4d1fa46e071723d6817e2486d003becc55f00a264697066735822122089aa132d1131bc23d73faed3f574b9599ea1dbe10f435b94814c38a58d62805564736f6c634300081b0033","linkReferences":{}},"methodIdentifiers":{"bets(uint256)":"22af00fa","bucketMaxPayout(address,uint256)":"c88a22e7","claimMultiple(uint256[])":"9051cce9","claimWinnings(uint256)":"677bd9ff","configureToken(address,uint256,uint256,uint256,uint256,uint256,uint256,uint8,uint8)":"f81eabfd","depositLiquidity(address,uint256)":"39b41b4a","depositUsdc(address,uint256)":"cceacc66","freePoolGridTokens(address)":"0d2eab9c","gdUSD()":"1c6e8122","gdUSDToken()":"6f3b444d","getBetStatus(uint256)":"61f14f11","getGridMatrix(address)":"b36d0c20","getTokenConfig(address)":"cb67e3b1","lockedGridTokens(address)":"a0eafae6","lpShares(address,address)":"6a9a7ffe","nextBetId()":"9aca2792","owner()":"8da5cb5b","ownerFundPool(address,uint256)":"ec9c23c6","paused()":"5c975abb","placeBet(address,int8,uint8,uint256)":"5c31a6a8","poolGdUsd(address)":"16f6bc7e","previewMultiplier(address,int8,uint8)":"477f0720","priceFeed()":"741bef1a","redeemForUsdc(address,uint256)":"facef3c3","renounceOwnership()":"715018a6","resolveBet(uint256)":"4c36c36e","resolveBets(uint256[])":"a8159ce5","setPaused(bool)":"16c38b3c","setPriceFeed(address)":"724e78da","setTokenActive(address,bool)":"e2f1b792","shareNAV(address)":"a14b60ea","tokenConfigs(address)":"1b69dc5f","totalShares(address)":"bf6b874e","transferOwnership(address)":"f2fde38b","usdc()":"3e413bee","usdcPool(address)":"d7d0c582","withdrawLiquidity(address,uint256)":"06d47de9"},"id":32}