{"abi":[{"type":"constructor","inputs":[{"name":"usdc_","type":"address","internalType":"address"},{"name":"priceFeed_","type":"address","internalType":"address"}],"stateMutability":"nonpayable"},{"type":"function","name":"bets","inputs":[{"name":"","type":"uint256","internalType":"uint256"}],"outputs":[{"name":"player","type":"address","internalType":"address"},{"name":"token","type":"address","internalType":"address"},{"name":"priceTicks","type":"int8","internalType":"int8"},{"name":"timeBuckets","type":"uint256","internalType":"uint256"},{"name":"targetPrice","type":"uint256","internalType":"uint256"},{"name":"expiryTs","type":"uint256","internalType":"uint256"},{"name":"gridTokenAmount","type":"uint256","internalType":"uint256"},{"name":"multiplier","type":"uint256","internalType":"uint256"},{"name":"resolved","type":"bool","internalType":"bool"},{"name":"won","type":"bool","internalType":"bool"},{"name":"claimed","type":"bool","internalType":"bool"}],"stateMutability":"view"},{"type":"function","name":"bucketMaxPayout","inputs":[{"name":"","type":"address","internalType":"address"},{"name":"","type":"uint256","internalType":"uint256"}],"outputs":[{"name":"","type":"uint256","internalType":"uint256"}],"stateMutability":"view"},{"type":"function","name":"claimMultiple","inputs":[{"name":"betIds","type":"uint256[]","internalType":"uint256[]"}],"outputs":[],"stateMutability":"nonpayable"},{"type":"function","name":"claimWinnings","inputs":[{"name":"betId","type":"uint256","internalType":"uint256"}],"outputs":[],"stateMutability":"nonpayable"},{"type":"function","name":"configureToken","inputs":[{"name":"token","type":"address","internalType":"address"},{"name":"gridToken_","type":"address","internalType":"address"},{"name":"annualVolBps","type":"uint256","internalType":"uint256"},{"name":"tickSizeUsdc","type":"uint256","internalType":"uint256"},{"name":"bucketSeconds","type":"uint256","internalType":"uint256"},{"name":"houseEdgeBps","type":"uint256","internalType":"uint256"},{"name":"minBetUsdc","type":"uint256","internalType":"uint256"},{"name":"maxBetUsdc","type":"uint256","internalType":"uint256"},{"name":"gridWidth","type":"uint8","internalType":"uint8"},{"name":"gridHalfHeight","type":"uint8","internalType":"uint8"}],"outputs":[],"stateMutability":"nonpayable"},{"type":"function","name":"depositLiquidity","inputs":[{"name":"token","type":"address","internalType":"address"},{"name":"usdcAmount","type":"uint256","internalType":"uint256"}],"outputs":[],"stateMutability":"nonpayable"},{"type":"function","name":"depositUsdc","inputs":[{"name":"token","type":"address","internalType":"address"},{"name":"usdcAmount","type":"uint256","internalType":"uint256"}],"outputs":[{"name":"gridTokensMinted","type":"uint256","internalType":"uint256"}],"stateMutability":"nonpayable"},{"type":"function","name":"freePoolGridTokens","inputs":[{"name":"token","type":"address","internalType":"address"}],"outputs":[{"name":"","type":"uint256","internalType":"uint256"}],"stateMutability":"view"},{"type":"function","name":"getBetStatus","inputs":[{"name":"betId","type":"uint256","internalType":"uint256"}],"outputs":[{"name":"resolved","type":"bool","internalType":"bool"},{"name":"won","type":"bool","internalType":"bool"},{"name":"claimed","type":"bool","internalType":"bool"},{"name":"payout","type":"uint256","internalType":"uint256"}],"stateMutability":"view"},{"type":"function","name":"getGridMatrix","inputs":[{"name":"token","type":"address","internalType":"address"}],"outputs":[{"name":"multipliers","type":"uint256[][]","internalType":"uint256[][]"},{"name":"prices","type":"uint256[]","internalType":"uint256[]"},{"name":"currentPrice","type":"uint256","internalType":"uint256"}],"stateMutability":"view"},{"type":"function","name":"getTokenConfig","inputs":[{"name":"token","type":"address","internalType":"address"}],"outputs":[{"name":"","type":"tuple","internalType":"struct xStocksGrid.TokenConfig","components":[{"name":"active","type":"bool","internalType":"bool"},{"name":"gridToken","type":"address","internalType":"address"},{"name":"annualVolBps","type":"uint256","internalType":"uint256"},{"name":"tickSizeUsdc","type":"uint256","internalType":"uint256"},{"name":"bucketSeconds","type":"uint256","internalType":"uint256"},{"name":"houseEdgeBps","type":"uint256","internalType":"uint256"},{"name":"minBetUsdc","type":"uint256","internalType":"uint256"},{"name":"maxBetUsdc","type":"uint256","internalType":"uint256"},{"name":"gridWidth","type":"uint8","internalType":"uint8"},{"name":"gridHalfHeight","type":"uint8","internalType":"uint8"},{"name":"openBoostBps","type":"uint256","internalType":"uint256"},{"name":"closeBoostBps","type":"uint256","internalType":"uint256"},{"name":"afterHoursBps","type":"uint256","internalType":"uint256"}]}],"stateMutability":"view"},{"type":"function","name":"lockedGridTokens","inputs":[{"name":"","type":"address","internalType":"address"}],"outputs":[{"name":"","type":"uint256","internalType":"uint256"}],"stateMutability":"view"},{"type":"function","name":"lpShares","inputs":[{"name":"","type":"address","internalType":"address"},{"name":"","type":"address","internalType":"address"}],"outputs":[{"name":"","type":"uint256","internalType":"uint256"}],"stateMutability":"view"},{"type":"function","name":"nextBetId","inputs":[],"outputs":[{"name":"","type":"uint256","internalType":"uint256"}],"stateMutability":"view"},{"type":"function","name":"owner","inputs":[],"outputs":[{"name":"","type":"address","internalType":"address"}],"stateMutability":"view"},{"type":"function","name":"paused","inputs":[],"outputs":[{"name":"","type":"bool","internalType":"bool"}],"stateMutability":"view"},{"type":"function","name":"placeBet","inputs":[{"name":"token","type":"address","internalType":"address"},{"name":"priceTicks","type":"int8","internalType":"int8"},{"name":"timeBuckets","type":"uint8","internalType":"uint8"},{"name":"gridTokenAmount","type":"uint256","internalType":"uint256"}],"outputs":[{"name":"betId","type":"uint256","internalType":"uint256"}],"stateMutability":"nonpayable"},{"type":"function","name":"previewMultiplier","inputs":[{"name":"token","type":"address","internalType":"address"},{"name":"priceTicks","type":"int8","internalType":"int8"},{"name":"timeBuckets","type":"uint8","internalType":"uint8"}],"outputs":[{"name":"multiplier","type":"uint256","internalType":"uint256"},{"name":"probability","type":"uint256","internalType":"uint256"},{"name":"targetPrice","type":"uint256","internalType":"uint256"},{"name":"payoutFor100","type":"uint256","internalType":"uint256"}],"stateMutability":"view"},{"type":"function","name":"priceFeed","inputs":[],"outputs":[{"name":"","type":"address","internalType":"contract PriceFeed"}],"stateMutability":"view"},{"type":"function","name":"redeemForUsdc","inputs":[{"name":"token","type":"address","internalType":"address"},{"name":"gridTokenAmount","type":"uint256","internalType":"uint256"}],"outputs":[{"name":"usdcOut","type":"uint256","internalType":"uint256"}],"stateMutability":"nonpayable"},{"type":"function","name":"renounceOwnership","inputs":[],"outputs":[],"stateMutability":"nonpayable"},{"type":"function","name":"resolveBet","inputs":[{"name":"betId","type":"uint256","internalType":"uint256"}],"outputs":[],"stateMutability":"nonpayable"},{"type":"function","name":"resolveBets","inputs":[{"name":"betIds","type":"uint256[]","internalType":"uint256[]"}],"outputs":[],"stateMutability":"nonpayable"},{"type":"function","name":"setPaused","inputs":[{"name":"p","type":"bool","internalType":"bool"}],"outputs":[],"stateMutability":"nonpayable"},{"type":"function","name":"setPriceFeed","inputs":[{"name":"pf","type":"address","internalType":"address"}],"outputs":[],"stateMutability":"nonpayable"},{"type":"function","name":"setTokenActive","inputs":[{"name":"token","type":"address","internalType":"address"},{"name":"active","type":"bool","internalType":"bool"}],"outputs":[],"stateMutability":"nonpayable"},{"type":"function","name":"shareNAV","inputs":[{"name":"token","type":"address","internalType":"address"}],"outputs":[{"name":"","type":"uint256","internalType":"uint256"}],"stateMutability":"view"},{"type":"function","name":"tokenConfigs","inputs":[{"name":"","type":"address","internalType":"address"}],"outputs":[{"name":"active","type":"bool","internalType":"bool"},{"name":"gridToken","type":"address","internalType":"address"},{"name":"annualVolBps","type":"uint256","internalType":"uint256"},{"name":"tickSizeUsdc","type":"uint256","internalType":"uint256"},{"name":"bucketSeconds","type":"uint256","internalType":"uint256"},{"name":"houseEdgeBps","type":"uint256","internalType":"uint256"},{"name":"minBetUsdc","type":"uint256","internalType":"uint256"},{"name":"maxBetUsdc","type":"uint256","internalType":"uint256"},{"name":"gridWidth","type":"uint8","internalType":"uint8"},{"name":"gridHalfHeight","type":"uint8","internalType":"uint8"},{"name":"openBoostBps","type":"uint256","internalType":"uint256"},{"name":"closeBoostBps","type":"uint256","internalType":"uint256"},{"name":"afterHoursBps","type":"uint256","internalType":"uint256"}],"stateMutability":"view"},{"type":"function","name":"totalShares","inputs":[{"name":"","type":"address","internalType":"address"}],"outputs":[{"name":"","type":"uint256","internalType":"uint256"}],"stateMutability":"view"},{"type":"function","name":"transferOwnership","inputs":[{"name":"newOwner","type":"address","internalType":"address"}],"outputs":[],"stateMutability":"nonpayable"},{"type":"function","name":"usdc","inputs":[],"outputs":[{"name":"","type":"address","internalType":"contract IERC20"}],"stateMutability":"view"},{"type":"function","name":"usdcPool","inputs":[{"name":"","type":"address","internalType":"address"}],"outputs":[{"name":"","type":"uint256","internalType":"uint256"}],"stateMutability":"view"},{"type":"function","name":"withdrawLiquidity","inputs":[{"name":"token","type":"address","internalType":"address"},{"name":"shares","type":"uint256","internalType":"uint256"}],"outputs":[],"stateMutability":"nonpayable"},{"type":"event","name":"BetPlaced","inputs":[{"name":"betId","type":"uint256","indexed":true,"internalType":"uint256"},{"name":"player","type":"address","indexed":true,"internalType":"address"},{"name":"token","type":"address","indexed":true,"internalType":"address"},{"name":"targetPrice","type":"uint256","indexed":false,"internalType":"uint256"},{"name":"expiryTs","type":"uint256","indexed":false,"internalType":"uint256"},{"name":"multiplier","type":"uint256","indexed":false,"internalType":"uint256"},{"name":"gridTokenAmount","type":"uint256","indexed":false,"internalType":"uint256"},{"name":"priceTicks","type":"int8","indexed":false,"internalType":"int8"},{"name":"timeBuckets","type":"uint256","indexed":false,"internalType":"uint256"}],"anonymous":false},{"type":"event","name":"BetResolved","inputs":[{"name":"betId","type":"uint256","indexed":true,"internalType":"uint256"},{"name":"won","type":"bool","indexed":false,"internalType":"bool"},{"name":"payout","type":"uint256","indexed":false,"internalType":"uint256"}],"anonymous":false},{"type":"event","name":"LiquidityDeposited","inputs":[{"name":"lp","type":"address","indexed":true,"internalType":"address"},{"name":"token","type":"address","indexed":true,"internalType":"address"},{"name":"usdcAmount","type":"uint256","indexed":false,"internalType":"uint256"},{"name":"shares","type":"uint256","indexed":false,"internalType":"uint256"}],"anonymous":false},{"type":"event","name":"LiquidityWithdrawn","inputs":[{"name":"lp","type":"address","indexed":true,"internalType":"address"},{"name":"token","type":"address","indexed":true,"internalType":"address"},{"name":"usdcAmount","type":"uint256","indexed":false,"internalType":"uint256"},{"name":"shares","type":"uint256","indexed":false,"internalType":"uint256"}],"anonymous":false},{"type":"event","name":"OwnershipTransferred","inputs":[{"name":"previousOwner","type":"address","indexed":true,"internalType":"address"},{"name":"newOwner","type":"address","indexed":true,"internalType":"address"}],"anonymous":false},{"type":"event","name":"Paused","inputs":[{"name":"paused","type":"bool","indexed":false,"internalType":"bool"}],"anonymous":false},{"type":"event","name":"TokenConfigured","inputs":[{"name":"token","type":"address","indexed":true,"internalType":"address"},{"name":"gridToken","type":"address","indexed":true,"internalType":"address"}],"anonymous":false},{"type":"event","name":"UsdcDeposited","inputs":[{"name":"user","type":"address","indexed":true,"internalType":"address"},{"name":"token","type":"address","indexed":true,"internalType":"address"},{"name":"usdcAmount","type":"uint256","indexed":false,"internalType":"uint256"},{"name":"gridTokens","type":"uint256","indexed":false,"internalType":"uint256"}],"anonymous":false},{"type":"event","name":"UsdcRedeemed","inputs":[{"name":"user","type":"address","indexed":true,"internalType":"address"},{"name":"token","type":"address","indexed":true,"internalType":"address"},{"name":"gridTokens","type":"uint256","indexed":false,"internalType":"uint256"},{"name":"usdcAmount","type":"uint256","indexed":false,"internalType":"uint256"}],"anonymous":false},{"type":"event","name":"WinningsClaimed","inputs":[{"name":"betId","type":"uint256","indexed":true,"internalType":"uint256"},{"name":"player","type":"address","indexed":true,"internalType":"address"},{"name":"gridTokens","type":"uint256","indexed":false,"internalType":"uint256"}],"anonymous":false},{"type":"error","name":"OwnableInvalidOwner","inputs":[{"name":"owner","type":"address","internalType":"address"}]},{"type":"error","name":"OwnableUnauthorizedAccount","inputs":[{"name":"account","type":"address","internalType":"address"}]},{"type":"error","name":"ReentrancyGuardReentrantCall","inputs":[]},{"type":"error","name":"SafeERC20FailedOperation","inputs":[{"name":"token","type":"address","internalType":"address"}]}],"bytecode":{"object":"0x60a0346101ac57601f613df638819003918201601f19168301916001600160401b038311848410176101b05780849260409485528339810103126101ac57610052602061004b836101c4565b92016101c4565b3315610199575f8054336001600160a01b0319821681178355604051949290916001600160a01b0316907f8be0079c531659141344cd1fd0a4f28419497f9722a3daafe3b4186f6b6457e09080a360017f9b779b17422d0df92223018b32b4d1fa46e071723d6817e2486d003becc55f008190556002556001600160a01b031691821561016b57506001600160a01b031690811561013557608052600180546001600160a01b031916919091179055604051613c1d90816101d98239608051818181610252015281816104d6015281816120cf0152818161215101526127080152f35b60405162461bcd60e51b815260206004820152600e60248201526d1e995c9bc81c1c9a58d95199595960921b6044820152606490fd5b62461bcd60e51b81526020600482015260096024820152687a65726f207573646360b81b6044820152606490fd5b631e4fbdf760e01b5f525f60045260245ffd5b5f80fd5b634e487b7160e01b5f52604160045260245ffd5b51906001600160a01b03821682036101ac5756fe60806040526004361015610011575f80fd5b5f5f3560e01c806306d47de9146125b05780630d2eab9c1461258c57806316c38b3c1461251e5780631b69dc5f1461244f57806322af00fa1461239857806339b41b4a146120fe5780633e413bee146120b9578063477f0720146120645780634c36c36e14612047578063502f257714611cca5780635c31a6a81461159e5780635c975abb1461157857806361f14f1114611493578063677bd9ff146112665780636a9a7ffe14611213578063715018a6146111b9578063724e78da14611142578063741bef1a146111195780638da5cb5b146110f25780639051cce914610e715780639aca279214610e53578063a0eafae614610e1a578063a14b60ea14610dee578063a8159ce514610cdc578063b36d0c20146107eb578063bf6b874e146107b2578063c88a22e71461076f578063cb67e3b11461060c578063cceacc6614610470578063d7d0c58214610437578063e2f1b792146103da578063f2fde38b146103545763facef3c314610185575f80fd5b346103515760403660031901126103515761019e612836565b6024356101a96130d8565b6101b282613262565b90801561031e5764e8d4a5100081049283156102e85760018060a01b03169182855260056020526101e98460408720541015612925565b602001516001600160a01b0316803b156102e457604051632770a7eb60e21b8152336004820152602481018390529085908290604490829084905af180156102d9576102c0575b5060408483602096526005865220610249848254612965565b905561027683337f00000000000000000000000000000000000000000000000000000000000000006131bb565b60405190815282848201527ff10a8b5b5bfcf1434e5df636fdc5d0933c1dda200389a7887834e62d0eb586bd60403392a360015f516020613bc85f395f51905f5255604051908152f35b6102cb8580926129f8565b6102d5575f610230565b8380fd5b6040513d87823e3d90fd5b8480fd5b60405162461bcd60e51b815260206004820152600e60248201526d726f756e647320746f207a65726f60901b6044820152606490fd5b60405162461bcd60e51b815260206004820152600b60248201526a1e995c9bc8185b5bdd5b9d60aa1b6044820152606490fd5b80fd5b50346103515760203660031901126103515761036e612836565b61037661323c565b6001600160a01b031680156103c65781546001600160a01b03198116821783556001600160a01b03167f8be0079c531659141344cd1fd0a4f28419497f9722a3daafe3b4186f6b6457e08380a380f35b631e4fbdf760e01b82526004829052602482fd5b5034610351576040366003190112610351576103f4612836565b6024358015158103610433576104309161040c61323c565b60018060a01b031683526003602052604083209060ff801983541691151516179055565b80f35b8280fd5b5034610351576020366003190112610351576020906040906001600160a01b0361045f612836565b168152600583522054604051908152f35b50346103515760403660031901126103515761048a612836565b6024356104956130d8565b6104a760ff60015460a01c1615612a1a565b6104b082613262565b9080156105db5764e8d4a5100081029281840464e8d4a51000036105c7576104fa8230337f000000000000000000000000000000000000000000000000000000000000000061335e565b60018060a01b03169182855260056020526040852061051a838254612a4f565b9055602001516001600160a01b0316803b156102e4576040516340c10f1960e01b8152336004820152602481018590529085908290604490829084905af180156102d9576105b2575b506020935060405190815282848201527fa503dc89e057034dcb442d35e3e3de08b51220c607f51626bbdcac29a90deabd60403392a360015f516020613bc85f395f51905f5255604051908152f35b6105bd8580926129f8565b6102d55783610563565b634e487b7160e01b85526011600452602485fd5b60405162461bcd60e51b81526020600482015260096024820152687a65726f207573646360b81b6044820152606490fd5b503461035157602036600319011261035157610626612836565b61062e613079565b506001600160a01b031681526003602052604090819020905161065081612972565b81549160ff83161515928383526020830190600160a01b600190039060081c16815260018201546040840190815260028301549060608501918252600384015460808601908152600485015460a0870190815260058601549060c0880191825260068701549260e089019384526007880154956101008a019560ff881687526101208b019760081c60ff16885260088a0154986101408c01998a5260098b01549a6101608d019b8c52600a01549b610180019b8c526040519c8d52600160a01b6001900390511660208d01525160408c01525160608b01525160808a01525160a08901525160c08801525160e08701525160ff166101008601525160ff166101208501525161014084015251610160830152516101808201526101a090f35b5034610351576040366003190112610351576020906040906001600160a01b03610797612836565b16815260098352818120602435825283522054604051908152f35b5034610351576020366003190112610351576020906040906001600160a01b036107da612836565b168152600783522054604051908152f35b5034610351576020366003190112610351576001600160a01b0361080d612836565b1690818152600360205260408120916040519261082984612972565b80549060ff821615918215865260018060a01b039060081c1660208601526001810154604086015260028101546060860190815260038201546080870152600482015460a0870152600582015460c0870152600682015460e0870152600782015492600a61010088019360ff8616855260ff6101208a019660081c16865260088101546101408a015260098101546101608a01520154610180880152610caa576001546040516353084eff60e01b815260048101869052936001600160a01b0390911690602085602481855afa948515610c9f578795610c67575b508415610c37578051936101fe60ff86169560011b169480860460021490151715610c23575196979660ff169261093a85612fd4565b97610948604051998a6129f8565b858952601f1961095787612fd4565b018a5b818110610c1057505060a061096e87612fec565b986024604051809781936374544e3b60e11b835260048301525afa8015610c05578a80958182918394610bc7575b50906109da9493929160409e9d9e51986109b58a6129c0565b15158952151560208901521515604088015215156060870152151560808601526135af565b91885b868110610ab7578a8a8a8a60405192606084016060855285518091526080850190602060808260051b88010197019183905b828210610a5e5750505050838503602085015260208084519687815201930190945b808610610a4657505082935060408301520390f35b90926020806001928651815201940195019490610a31565b9091929397607f19888203018252845190602080835192838152019201908a905b808210610a9f57509199956020908101959460010193019150610a0f9050565b90919260208060019286518152019401920190610a7f565b8151999a9960ff1680821015610b985750610ad68160ff845116612965565b60015b15610b7f57610af2610aec8551836128c6565b8a612a4f565b610afc838c613065565b52610b0687612fec565b610b10838d613065565b52610b1b828c613065565b508b5b878110610b325750506001019998996109dd565b60018101808211610b6b57908c610b6482610b5e878f8d8d610b579260019a8c61363b565b5094613065565b51613065565b5201610b1e565b634e487b7160e01b8e52601160045260248efd5b610b93610b8d8551836128c6565b8a612965565b610af2565b610ba29082612965565b60018101809111610bb3578b610ad9565b634e487b7160e01b8c52601160045260248cfd5b925050506109da929550610bf3915060a03d60a011610bfe575b610beb81836129f8565b81019061301e565b93979490929061099c565b503d610be1565b6040513d8c823e3d90fd5b60606020828d018101919091520161095a565b634e487b7160e01b88526011600452602488fd5b60405162461bcd60e51b81526020600482015260086024820152676e6f20707269636560c01b6044820152606490fd5b9094506020813d602011610c97575b81610c83602093836129f8565b81010312610c935751935f610904565b5f80fd5b3d9150610c76565b6040513d89823e3d90fd5b60405162461bcd60e51b815260206004820152600a6024820152696e6f742061637469766560b01b6044820152606490fd5b503461035157610ceb36612872565b825b818110610cf8578380f35b610d03818385612ee7565b35845260046020526040842080549091906001600160a01b031615610de55760ff600783015416610de557600482015491824210610ddb5760018054910154604051630794df9560e11b81526001600160a01b039182166004820152602481019490945260809184916044918391165afa80156102d9576001928691610da9575b5015610da457610d9e610d98828587612ee7565b35612c01565b01610ced565b610d9e565b610dca915060803d8111610dd4575b610dc281836129f8565b810190612bd8565b925050505f610d84565b503d610db8565b5060019150610d9e565b60019150610d9e565b5034610351576020366003190112610351576020610e12610e0d612836565b612f0b565b604051908152f35b5034610351576020366003190112610351576020906040906001600160a01b03610e42612836565b168152600883522054604051908152f35b50346103515780600319360112610351576020600254604051908152f35b503461035157610e8036612872565b610e886130d8565b8291839184905b808210610fb3575050508115610f7b576001600160a01b0316908115610f46576040516370a0823160e01b815230600482015291602083602481845afa928315610f3b578493610f05575b50610eea82610ef1941015612925565b33906131bb565b60015f516020613bc85f395f51905f525580f35b92506020833d602011610f33575b81610f20602093836129f8565b81010312610c9357915191610eea610eda565b3d9150610f13565b6040513d86823e3d90fd5b60405162461bcd60e51b815260206004820152600d60248201526c6e6f2076616c6964206265747360981b6044820152606490fd5b60405162461bcd60e51b815260206004820152601060248201526f6e6f7468696e6720746f20636c61696d60801b6044820152606490fd5b90929193610fc2848387612ee7565b3586526004602052604086208054336001600160a01b03909116036110e8576007810180549460ff86161580156110db575b80156110cd575b6110c05760018301546001600160a01b039081168a52600360205260408a205460081c8116919081168061106c57505061105861105f936001959362010000606494995b62ff0000191617905560066005820154910154906128c6565b0490612a4f565b935b019093919293610e8f565b90969492910361108c5761105861105f936064926201000060019761103f565b60405162461bcd60e51b815260206004820152600c60248201526b6d6978656420746f6b656e7360a01b6044820152606490fd5b9450505092600190611061565b5060ff8660081c1615610ffb565b5060ff8660101c16610ff4565b5092600190611061565b5034610351578060031936011261035157546040516001600160a01b039091168152602090f35b50346103515780600319360112610351576001546040516001600160a01b039091168152602090f35b50346103515760203660031901126103515761115c612836565b61116461323c565b6001600160a01b0316801561118e576bffffffffffffffffffffffff60a01b600154161760015580f35b606460405162461bcd60e51b81526020600482015260046024820152637a65726f60e01b6044820152fd5b50346103515780600319360112610351576111d261323c565b80546001600160a01b03198116825581906001600160a01b03167f8be0079c531659141344cd1fd0a4f28419497f9722a3daafe3b4186f6b6457e08280a380f35b503461035157604036600319011261035157604061122f612836565b9161123861284c565b9260018060a01b031681526006602052209060018060a01b03165f52602052602060405f2054604051908152f35b5034610351576020366003190112610351576004356112836130d8565b80825260046020526040822080549091906001600160a01b0316330361145f5760078201805460ff81161561142b5760ff8160081c16156113fb5760ff8160101c166113c457620100009062ff0000191617905560646112ec60058401546006850154906128c6565b04916001808060a01b03910154168352600360205260018060a01b03604084205460081c166040516370a0823160e01b8152306004820152602081602481855afa80156102d9578491869161138d575b5091610eea8261134d941015612925565b6040519182527f5380cf6fe903b40c6d5a9e0dfbca2f3a423f0a21520b4d5947ed5169bdba946d60203393a360015f516020613bc85f395f51905f525580f35b9150506020813d6020116113bc575b816113a9602093836129f8565b81010312610c9357518390610eea61133c565b3d915061139c565b60405162461bcd60e51b815260206004820152600f60248201526e185b1c9958591e4818db185a5b5959608a1b6044820152606490fd5b60405162461bcd60e51b815260206004820152600860248201526718995d081b1bdcdd60c21b6044820152606490fd5b60405162461bcd60e51b815260206004820152600c60248201526b1b9bdd081c995cdbdb1d995960a21b6044820152606490fd5b60405162461bcd60e51b815260206004820152600c60248201526b1b9bdd081e5bdd5c8818995d60a21b6044820152606490fd5b503461035157602036600319011261035157608090600435815260046020526040812090610140606461155f604051946114cc866129a3565b60018060a01b038154168652600181015460018060a01b038116602088015260a01c850b604087015260028101546060870152600381015487870152600481015460a087015260058101548060c088015260076006830154928360e08a015201549560ff87161515978861010082015260ff808960081c161515988961012084015260101c1615159687910152506128c6565b0491604051938452602084015260408301526060820152f35b5034610351578060031936011261035157602060ff60015460a01c166040519015158152f35b5034610351576080366003190112610351576115b8612836565b60243580830b908181036102d5576115ce612862565b916064356115da6130d8565b600154946115ee60ff8760a01c1615612a1a565b8215611c8f576115fd81613262565b6040516374544e3b60e11b81526001600160a01b03838116600483018190529892979216959064e8d4a51000850460a0826024818b5afa918215611a62578b928c918d91611c65575b5060c08b01519360e08c01928351925f14611c24575050505062989680915b8110611bef5711611bba576020602496604051978880926353084eff60e01b82528c60048301525afa958615611baf578996611b7b575b508515611b405760ff821695600187101580611b2e575b15611af8576116c4928492896133c7565b92939150966116df60646116d886886128c6565b0492613110565b8015611ac657610bb88102908104610bb803611ab25761271090048211611a6d57888a52600360209081526040808c205490516370a0823160e01b815230600482015291908290602490829060081c6001600160a01b03165afa908115611a62578b91611a30575b50898b52600960205260408b20848c526020526117688360408d2054612a4f565b610bb88202828104610bb81483151715611a1c576127109004106119d75760149004851161199257602001516117ac908590309033906001600160a01b031661335e565b8789526008602052604089206117c3828254612a4f565b9055878952600960205260408920828a526020526117e660408a20918254612a4f565b9055600254975f19891461197e57600189016002558860405191611809836129a3565b33835260208084018b815260408086018a8152606087018c8152608088018e815260a0808a018b815260c08b018e815260e08c018e81526101008d018b81526101208e018c81526101408f018d81529d8d5260049b8c905298909b209c518d546001600160a01b039182166001600160a01b0319909116178e55985160018e018054985190951b60ff60a01b1699166001600160a81b03199097169690961797909717909155915160028a01555160038901555193870193909355905160058601559051600685015590516007909301805460ff191660ff9415159490941693909317835551825461ff00191690151560081b61ff001617825551151581549060101b62ff0000169062ff00001916179055604051958652602086015260408501526060840152608083015260a082015282339160c07facf426b9dcc14a217d75dc57a7cd275b36e9a1daab25da3dedf9fc4768b9201691a460015f516020613bc85f395f51905f5255604051908152602090f35b634e487b7160e01b81526011600452602490fd5b60405162461bcd60e51b815260206004820152601e60248201527f6578706f737572653a2073696e676c6520626574203e20352520706f6f6c00006044820152606490fd5b60405162461bcd60e51b815260206004820152601b60248201527f6578706f737572653a206275636b6574203e2033302520706f6f6c00000000006044820152606490fd5b634e487b7160e01b8d52601160045260248dfd5b90506020813d602011611a5a575b81611a4b602093836129f8565b81010312610c9357515f611747565b3d9150611a3e565b6040513d8d823e3d90fd5b60405162461bcd60e51b815260206004820152601f60248201527f6578706f737572653a2073696e676c6520626574203e2033302520706f6f6c006044820152606490fd5b634e487b7160e01b8b52601160045260248bfd5b60405162461bcd60e51b815260206004820152600a602482015269706f6f6c20656d70747960b01b6044820152606490fd5b60405162461bcd60e51b815260206004820152600e60248201526d34b73b30b634b21031b7b63ab6b760911b6044820152606490fd5b5060ff610100890151168711156116b3565b60405162461bcd60e51b81526020600482015260136024820152727072696365206e6f7420617661696c61626c6560681b6044820152606490fd5b9095506020813d602011611ba7575b81611b97602093836129f8565b81010312610c935751945f61169c565b3d9150611b8a565b6040513d8b823e3d90fd5b60405162461bcd60e51b815260206004820152600d60248201526c18589bdd99481b585e0818995d609a1b6044820152606490fd5b60405162461bcd60e51b815260206004820152600d60248201526c18995b1bddc81b5a5b8818995d609a1b6044820152606490fd5b15611c355750505160011c91611665565b93919093611c44575b50611665565b9250600381029080820460031490151715610bb357915160011c915f611c3e565b915050611c8291925060a03d60a011610bfe57610beb81836129f8565b929493509190505f611646565b60405162461bcd60e51b81526020600482015260136024820152727069636b2061206e6f6e2d7a65726f20726f7760681b6044820152606490fd5b50346103515761014036600319011261035157611ce5612836565b611ced61284c565b6044356064359060843560a4359160c4359560e43590610104359160ff831680930361204357610124359160ff831680930361203f57611d2b61323c565b6001600160a01b031697881561200d576001600160a01b0316988915611fd7578415611fa7578715611f76578515611f4357611388871015611f10578015611ee057808210611eaf5788968b9660405199611d858b612972565b60018b5260208b01978d895260408c0190815260608c0191825260808c0192835260a08c0193845260c08c0194855260e08c019586526101008c019788526101208c019687526101408c01986161a88a526101608d019a8d6146508d52610180019c610fa08e528152600360205260409020809d511515611e11919060ff801983541691151516179055565b518c5490600160a81b61010090039060081b1690600160a81b61010090031916178c555160018c01555160028b01555160038a015551600489015551600588015551600687015560078601915160ff168254915160081b61ff00169161ffff1916171790555160088401555160098301555190600a01557fb91b059ec6effdbc3104cd63853c5f0c247e5732327f1cce6d35e2081211b2d18380a380f35b60405162461bcd60e51b815260206004820152600960248201526836b0bc101e1036b4b760b91b6044820152606490fd5b60405162461bcd60e51b81526020600482015260086024820152673d32b9379036b4b760c11b6044820152606490fd5b60405162461bcd60e51b815260206004820152600b60248201526a65646765203e3d2035302560a81b6044820152606490fd5b60405162461bcd60e51b815260206004820152600b60248201526a1e995c9bc8189d58dad95d60aa1b6044820152606490fd5b60405162461bcd60e51b81526020600482015260096024820152687a65726f207469636b60b81b6044820152606490fd5b60405162461bcd60e51b81526020600482015260086024820152671e995c9bc81d9bdb60c21b6044820152606490fd5b60405162461bcd60e51b815260206004820152600e60248201526d3d32b9379033b934b22a37b5b2b760911b6044820152606490fd5b60405162461bcd60e51b815260206004820152600a6024820152693d32b937903a37b5b2b760b11b6044820152606490fd5b8a80fd5b8980fd5b503461035157602036600319011261035157610430600435612c01565b50346103515760603660031901126103515761207e612836565b906024359081810b82036103515760806120a1848461209b612862565b91612a5c565b91604051938452602084015260408301526060820152f35b50346103515780600319360112610351576040517f00000000000000000000000000000000000000000000000000000000000000006001600160a01b03168152602090f35b503461035157604036600319011261035157612118612836565b6024356121236130d8565b61213560ff60015460a01c1615612a1a565b61213e82613262565b91629896808210612366576121758230337f000000000000000000000000000000000000000000000000000000000000000061335e565b60018060a01b031691828452600560205260408420612195838254612a4f565b905564e8d4a5100082029082820464e8d4a5100014831517156105c757602001805190919085906001600160a01b0316803b15612362576040516340c10f1960e01b8152306004820152602481018490529082908290604490829084905af1801561235757612342575b5084905260076020908152604080872054935190516370a0823160e01b81523060048201529190829060249082906001600160a01b03165afa908115612337578691612305575b50821580156122fc575b156122db57505050805b338452600660205260408420835f5260205260405f2061227b828254612a4f565b9055828452600760205260408420612294828254612a4f565b905560405191825260208201527f44504979f82d498dad8a0687fc02e140be70b1b4ab3b9e23c6ffc1d04410194a60403392a360015f516020613bc85f395f51905f525580f35b6122f7926122ec836122f293612965565b926128c6565b61291b565b61225a565b50818114612250565b90506020813d60201161232f575b81612320602093836129f8565b81010312610c9357515f612246565b3d9150612313565b6040513d88823e3d90fd5b8161234c916129f8565b6102e457845f6121ff565b6040513d84823e3d90fd5b5080fd5b60405162461bcd60e51b815260206004820152600a60248201526906d696e204c50202431360b41b6044820152606490fd5b503461035157602036600319011261035157610160906004358152600460205260ff604082209160018060a01b0383541692600181015491600282015460038301546004840154916005850154936007600687015496015496604051998a5260018060a01b03811660208b015260a01c900b60408901526060880152608087015260a086015260c085015260e08401528181161515610100840152818160081c16151561012084015260101c161515610140820152f35b5034610351576020366003190112610351576101a0906040906001600160a01b03612478612836565b168152600360205220805490600181015490600281015460ff600383015460048401546005850154600686015491600787015493600888015496600a60098a0154990154996040519b88811615158d5260018060a01b039060081c1660208d015260408c015260608b015260808a015260a089015260c088015260e087015281811661010087015260081c16610120850152610140840152610160830152610180820152f35b5034610351576020366003190112610351576004358015158091036123625760207f0e2fb031ee032dc02d8011dc50b816eb450cf856abd8261680dac74f72165bd29161256961323c565b6001805460ff60a01b191660a083901b60ff60a01b16179055604051908152a180f35b5034610351576020366003190112610351576020610e126125ab612836565b613110565b5034610c93576040366003190112610c93576125ca612836565b602435906125d66130d8565b335f52600660205260405f2060018060a01b0382165f526020528160405f2054106127fb576001600160a01b0381165f8181526007602052604090205490929080156127cc5761264a90845f5260036020526122f261264460018060a01b0360405f205460081c1695613110565b846128c6565b80156127915764e8d4a51000810492845f5260056020526126718460405f20541015612925565b335f52600660205260405f20855f5260205260405f20612692848254612965565b9055845f52600760205260405f206126ab848254612965565b9055803b15610c9357604051632770a7eb60e21b815230600482015260248101929092525f908290604490829084905af1801561278657612771575b508284526005602052604084206126ff838254612965565b905561272c82337f00000000000000000000000000000000000000000000000000000000000000006131bb565b60405191825260208201527fba0b893b2f314a229997e335266881b5ac6b290bd350d2c23cc57160b77882b860403392a360015f516020613bc85f395f51905f525580f35b61277e9194505f906129f8565b5f925f6126e7565b6040513d5f823e3d90fd5b60405162461bcd60e51b81526020600482015260136024820152726e6f7468696e6720746f20776974686472617760681b6044820152606490fd5b60405162461bcd60e51b81526020600482015260076024820152661b9bc81c1bdbdb60ca1b6044820152606490fd5b60405162461bcd60e51b8152602060048201526013602482015272696e73756666696369656e742073686172657360681b6044820152606490fd5b600435906001600160a01b0382168203610c9357565b602435906001600160a01b0382168203610c9357565b6044359060ff82168203610c9357565b906020600319830112610c935760043567ffffffffffffffff8111610c935782602382011215610c935780600401359267ffffffffffffffff8411610c935760248460051b83010111610c93576024019190565b818102929181159184041417156128d957565b634e487b7160e01b5f52601160045260245ffd5b8015612907576ec097ce7bc90715b34b9f10000000000490565b634e487b7160e01b5f52601260045260245ffd5b8115612907570490565b1561292c57565b60405162461bcd60e51b81526020600482015260116024820152701c1bdbdb081a5b9cdd59999a58da595b9d607a1b6044820152606490fd5b919082039182116128d957565b6101a0810190811067ffffffffffffffff82111761298f57604052565b634e487b7160e01b5f52604160045260245ffd5b610160810190811067ffffffffffffffff82111761298f57604052565b60a0810190811067ffffffffffffffff82111761298f57604052565b60e0810190811067ffffffffffffffff82111761298f57604052565b90601f8019910116810190811067ffffffffffffffff82111761298f57604052565b15612a2157565b60405162461bcd60e51b81526020600482015260066024820152651c185d5cd95960d21b6044820152606490fd5b919082018092116128d957565b909160018060a01b03821690815f52600360205260405f209360405194612a8286612972565b600a81549160ff831615928315895260018060a01b039060081c166020890152600181015460408901526002810154606089015260038101546080890152600481015460a0890152600581015460c0890152600681015460e089015260ff60078201548181166101008b015260081c16610120890152600881015461014089015260098101546101608901520154610180870152612b88576001546040516353084eff60e01b81526004810194909452602090849060249082906001600160a01b03165afa928315612786575f93612b97575b508215612b8857612b65946133c7565b50919290919068056bc75e2d6310000080850290810485036128d9576064900490565b50505050505f905f905f905f90565b9092506020813d602011612bc3575b81612bb3602093836129f8565b81010312610c935751915f612b55565b3d9150612ba6565b51908115158203610c9357565b9190826080910312610c9357815191602081015191612bfe606060408401519301612bcb565b90565b5f81815260046020526040902080546001600160a01b031615612eb2576007810180549060ff8216612e7a5760048301805490814210612e4157600180549086018054604051630794df9560e11b81526001600160a01b0380831660048301526024820196909652909791949192909160809183916044918391165afa918215612786575f925f925f91612e18575b5015612dd357612d02604097600197606495612d12955f7fe1b4cc7b572a56466df9203312ded49052ff26393efd614a3f8658c98ec0fc389d60a01c810b135f14612dc25750600385015411159889925b61ff001990911661ffff199091161791151560081b61ff0016919091179055565b60066005820154910154906128c6565b049160018060a01b03815416805f52600860205283865f20541015612da5575b50546001600160a01b03165f81815260096020908152868220935480835293905285902054831115612d7e575b50508115612d77575b825191151582526020820152a2565b505f612d68565b5f526009602052835f20905f52602052825f20612d9c828254612965565b90555f80612d5f565b5f526008602052845f20612dba848254612965565b90555f612d32565b905060038501541015988992612ce1565b60405162461bcd60e51b815260206004820152601e60248201527f7265736f6c7574696f6e2064617461206e6f74207075736865642079657400006044820152606490fd5b91935050612e35915060803d608011610dd457610dc281836129f8565b9250929092915f612c90565b60405162461bcd60e51b8152602060048201526011602482015270189d58dad95d081b9bdd0818db1bdcd959607a1b6044820152606490fd5b60405162461bcd60e51b815260206004820152601060248201526f185b1c9958591e481c995cdbdb1d995960821b6044820152606490fd5b60405162461bcd60e51b815260206004820152600d60248201526c18995d081b9bdd08199bdd5b99609a1b6044820152606490fd5b9190811015612ef75760051b0190565b634e487b7160e01b5f52603260045260245ffd5b6001600160a01b03165f81815260076020526040902054908115612fcb575f5260036020526024602060018060a01b0360405f205460081c16604051928380926370a0823160e01b82523060048301525afa8015612786575f90612f94575b64e8d4a5100091500490620f4240820291808304620f424014901517156128d957612bfe9161291b565b506020813d602011612fc3575b81612fae602093836129f8565b81010312610c935764e8d4a510009051612f6a565b3d9150612fa1565b5050620f424090565b67ffffffffffffffff811161298f5760051b60200190565b90612ff682612fd4565b61300360405191826129f8565b8281528092613014601f1991612fd4565b0190602036910137565b908160a0910312610c935761303281612bcb565b9161303f60208301612bcb565b9161304c60408201612bcb565b91612bfe608061305e60608501612bcb565b9301612bcb565b8051821015612ef75760209160051b010190565b6040519061308682612972565b5f610180838281528260208201528260408201528260608201528260808201528260a08201528260c08201528260e0820152826101008201528261012082015282610140820152826101608201520152565b60025f516020613bc85f395f51905f5254146131015760025f516020613bc85f395f51905f5255565b633ee5aeb560e01b5f5260045ffd5b6001600160a01b039081165f8181526003602052604090205460081c909116908115613181576020602492604051938480926370a0823160e01b82523060048301525afa918215612786575f92613187575b505f52600860205260405f20548082115f1461318157612bfe91612965565b50505f90565b9091506020813d6020116131b3575b816131a3602093836129f8565b81010312610c935751905f613162565b3d9150613196565b916040519163a9059cbb60e01b5f5260018060a01b031660045260245260205f60448180865af19060015f511482161561321b575b604052156131fb5750565b635274afe760e01b5f9081526001600160a01b0391909116600452602490fd5b90600181151661323357823b15153d151616906131f0565b503d5f823e3d90fd5b5f546001600160a01b0316330361324f57565b63118cdaa760e01b5f523360045260245ffd5b61326a613079565b5060018060a01b03165f52600360205260405f209060405161328b81612972565b600a83549360ff851615948515845260018060a01b039060081c166020840152600181015460408401526002810154606084015260038101546080840152600481015460a0840152600581015460c0840152600681015460e084015260ff600782015481811661010086015260081c166101208401526008810154610140840152600981015461016084015201546101808201529161332657565b60405162461bcd60e51b815260206004820152601060248201526f746f6b656e206e6f742061637469766560801b6044820152606490fd5b6040516323b872dd60e01b5f9081526001600160a01b039384166004529290931660245260449390935260209060648180865af19060015f51148216156133af575b6040525f606052156131fb5750565b90600181151661323357823b15153d151616906133a0565b91935f91820b9182139291831561359c57925b1561353d576133f66133f06060840151856128c6565b85612a4f565b935b61342b608084019661342560ff61341b6134138b514261291b565b8b51906128c6565b92169851896128c6565b90612a4f565b6001546040516374544e3b60e11b81526001600160a01b0394851660048201819052929894909116959193919060a0816024818a5afa908115612786575f955f905f925f94613510575b5060a0906024604051809c81936374544e3b60e11b835260048301525afa978815612786576134e2995f996134e7575b506134af906135af565b96604051986134bd8a6129c0565b151589521515602089015215156040880152151560608701521515608086015261363b565b929093565b6134af9199506135059060a03d60a011610bfe57610beb81836129f8565b5050505098906134a5565b9150925060a080975061352f92503d8811610bfe57610beb81836129f8565b935091979091929390613475565b61354b6060830151846128c6565b848110156135635761355d9085612965565b936133f8565b60405162461bcd60e51b81526020600482015260116024820152707461726765742062656c6f77207a65726f60781b6044820152606490fd5b600160ff1b81146128d9575f03926133da565b5f60c06040516135be816129dc565b8281528260208201528260408201528260608201528260808201528260a08201520152604081015190606081015190608081015160a0820151610140830151916101806101608501519401519460405196613618886129dc565b8752602087015260408601526060850152608084015260a083015260c082015290565b929383156138825781156138445782156138085761366e61367a918651608088015160a08901519060c08a0151926138be565b916040860151906128c6565b670de0b6b3a7640000820291808304670de0b6b3a764000014901517156128d957670de0b6b3a7640000810290808204670de0b6b3a764000014901517156128d9576136c590613abb565b6a1a1601fc4ea7109e000000916a0d0b00fe2753884f0000005b8381106137e05750916122f26136fc9261271061370895046128c6565b926020850151906128c6565b90670de0b6b3a7640000820291808304670de0b6b3a764000014901517156128d9576137339161291b565b81156137d457670de0b6b3a7640000810290808204670de0b6b3a764000014901517156128d95761376c916137679161291b565b61393b565b9081156137ca57606061377e836128ed565b9101516127100361271081116128d9576137a361271091662386f26fc10000936128c6565b040491606e83106137c1575b61271083116137ba57565b6127109250565b606e92506137af565b5050612710905f90565b50505061271090600190565b92508280156129075780613800916a1a1601fc4ea7109e00000004612a4f565b60011c6136df565b60405162461bcd60e51b8152602060048201526014602482015273477269644d6174683a207a65726f20707269636560601b6044820152606490fd5b60405162461bcd60e51b8152602060048201526016602482015275477269644d6174683a207a65726f206275636b65747360501b6044820152606490fd5b60405162461bcd60e51b8152602060048201526014602482015273477269644d6174683a207a65726f207469636b7360601b6044820152606490fd5b939192608083015161391a57825115613909575060208201516138f95750604001516138e8575090565b6138f590612710926128c6565b0490565b90506138f59150612710926128c6565b9150506138f59150612710926128c6565b505050506107d08102908082046107d014901517156128d957612710900490565b6753444835ec5800008111613ab55780631386a4bc02631386a4bc810482036128d957670de0b6b3a76400009004633b9aca000180633b9aca00116128d9578015612907576b033b2e3c9fd0803ce80000000480633f43c2f502633f43c2f5810482036128d957670de0b6b3a7640000900463569d571b81018091116128d9576139ce82670de0b6b3a7640000926128c6565b046354b90d6d81018091116128d9576139f082670de0b6b3a7640000926128c6565b046310f5136081018091116128d957613a1282670de0b6b3a7640000926128c6565b0490630f30641882018092116128d957613a4c670de0b6b3a7640000613a44671bc16d674ec8000093613a52956128c6565b0493806128c6565b04613b01565b633b9aca00810290808204633b9aca0014901517156128d957633b9aca00916395681cb2613a8092046128c6565b04600181901b91906001600160ff1b038116036128d957670de0b6b3a76400008211613aa857565b670de0b6b3a76400009150565b50600190565b908115613afc57600182018083116128d95760011c825b838210613add575050565b909250613af383613aee818461291b565b612a4f565b60011c90613ad2565b5f9150565b6801158e460913d00000811015613bc2578015613bb557670de0b6b3a7640000613b2b82806128c6565b0490670de0b6b3a7640000613b4082846128c6565b0490670de0b6b3a7640000613b5582846128c6565b0492670de0b6b3a7640000613b6a83866128c6565b0491670de0b6b3a7640000019283670de0b6b3a7640000116128d957612bfe946018613ba8613ba8936006613ba8613bb09960789860011c90612a4f565b910490612a4f565b6128ed565b50670de0b6b3a764000090565b505f9056fe9b779b17422d0df92223018b32b4d1fa46e071723d6817e2486d003becc55f00a26469706673582212206d260d2c94d09d7245ed610720d117f76881744e2473b1a6ad6dd9972b38a58b64736f6c634300081b0033","linkReferences":{}},"methodIdentifiers":{"bets(uint256)":"22af00fa","bucketMaxPayout(address,uint256)":"c88a22e7","claimMultiple(uint256[])":"9051cce9","claimWinnings(uint256)":"677bd9ff","configureToken(address,address,uint256,uint256,uint256,uint256,uint256,uint256,uint8,uint8)":"502f2577","depositLiquidity(address,uint256)":"39b41b4a","depositUsdc(address,uint256)":"cceacc66","freePoolGridTokens(address)":"0d2eab9c","getBetStatus(uint256)":"61f14f11","getGridMatrix(address)":"b36d0c20","getTokenConfig(address)":"cb67e3b1","lockedGridTokens(address)":"a0eafae6","lpShares(address,address)":"6a9a7ffe","nextBetId()":"9aca2792","owner()":"8da5cb5b","paused()":"5c975abb","placeBet(address,int8,uint8,uint256)":"5c31a6a8","previewMultiplier(address,int8,uint8)":"477f0720","priceFeed()":"741bef1a","redeemForUsdc(address,uint256)":"facef3c3","renounceOwnership()":"715018a6","resolveBet(uint256)":"4c36c36e","resolveBets(uint256[])":"a8159ce5","setPaused(bool)":"16c38b3c","setPriceFeed(address)":"724e78da","setTokenActive(address,bool)":"e2f1b792","shareNAV(address)":"a14b60ea","tokenConfigs(address)":"1b69dc5f","totalShares(address)":"bf6b874e","transferOwnership(address)":"f2fde38b","usdc()":"3e413bee","usdcPool(address)":"d7d0c582","withdrawLiquidity(address,uint256)":"06d47de9"},"id":32}