{"abi":[{"type":"constructor","inputs":[{"name":"feeder_","type":"address","internalType":"address"}],"stateMutability":"nonpayable"},{"type":"function","name":"feeder","inputs":[],"outputs":[{"name":"","type":"address","internalType":"address"}],"stateMutability":"view"},{"type":"function","name":"getLatestPrice","inputs":[{"name":"token","type":"address","internalType":"address"}],"outputs":[{"name":"price","type":"uint256","internalType":"uint256"},{"name":"staleness","type":"uint256","internalType":"uint256"}],"stateMutability":"view"},{"type":"function","name":"getMarketState","inputs":[{"name":"token","type":"address","internalType":"address"}],"outputs":[{"name":"isOpen","type":"bool","internalType":"bool"},{"name":"isOpeningWindow","type":"bool","internalType":"bool"},{"name":"isClosingWindow","type":"bool","internalType":"bool"},{"name":"isAfterHours","type":"bool","internalType":"bool"},{"name":"isWeekend","type":"bool","internalType":"bool"}],"stateMutability":"view"},{"type":"function","name":"getResolutionData","inputs":[{"name":"token","type":"address","internalType":"address"},{"name":"expiry","type":"uint256","internalType":"uint256"}],"outputs":[{"name":"price","type":"uint256","internalType":"uint256"},{"name":"high","type":"uint256","internalType":"uint256"},{"name":"low","type":"uint256","internalType":"uint256"},{"name":"available","type":"bool","internalType":"bool"}],"stateMutability":"view"},{"type":"function","name":"lastUpdated","inputs":[{"name":"","type":"address","internalType":"address"}],"outputs":[{"name":"","type":"uint256","internalType":"uint256"}],"stateMutability":"view"},{"type":"function","name":"latestPrice","inputs":[{"name":"","type":"address","internalType":"address"}],"outputs":[{"name":"","type":"uint256","internalType":"uint256"}],"stateMutability":"view"},{"type":"function","name":"owner","inputs":[],"outputs":[{"name":"","type":"address","internalType":"address"}],"stateMutability":"view"},{"type":"function","name":"setFeeder","inputs":[{"name":"newFeeder","type":"address","internalType":"address"}],"outputs":[],"stateMutability":"nonpayable"},{"type":"function","name":"setPrice","inputs":[{"name":"token","type":"address","internalType":"address"},{"name":"price","type":"uint256","internalType":"uint256"},{"name":"isOpen","type":"bool","internalType":"bool"},{"name":"isOpeningWindow","type":"bool","internalType":"bool"},{"name":"isClosingWindow","type":"bool","internalType":"bool"},{"name":"isAfterHours","type":"bool","internalType":"bool"},{"name":"isWeekend","type":"bool","internalType":"bool"}],"outputs":[],"stateMutability":"nonpayable"},{"type":"function","name":"setPriceBatch","inputs":[{"name":"tokens","type":"address[]","internalType":"address[]"},{"name":"prices","type":"uint256[]","internalType":"uint256[]"}],"outputs":[],"stateMutability":"nonpayable"},{"type":"function","name":"setResolutionData","inputs":[{"name":"token","type":"address","internalType":"address"},{"name":"bucketExpiry","type":"uint256","internalType":"uint256"},{"name":"price","type":"uint256","internalType":"uint256"},{"name":"high","type":"uint256","internalType":"uint256"},{"name":"low","type":"uint256","internalType":"uint256"}],"outputs":[],"stateMutability":"nonpayable"},{"type":"function","name":"setResolutionDataBatch","inputs":[{"name":"token","type":"address","internalType":"address"},{"name":"expiries","type":"uint256[]","internalType":"uint256[]"},{"name":"prices","type":"uint256[]","internalType":"uint256[]"},{"name":"highs","type":"uint256[]","internalType":"uint256[]"},{"name":"lows","type":"uint256[]","internalType":"uint256[]"}],"outputs":[],"stateMutability":"nonpayable"},{"type":"function","name":"transferOwnership","inputs":[{"name":"newOwner","type":"address","internalType":"address"}],"outputs":[],"stateMutability":"nonpayable"},{"type":"event","name":"FeederChanged","inputs":[{"name":"oldFeeder","type":"address","indexed":true,"internalType":"address"},{"name":"newFeeder","type":"address","indexed":true,"internalType":"address"}],"anonymous":false},{"type":"event","name":"MarketStateUpdated","inputs":[{"name":"token","type":"address","indexed":true,"internalType":"address"},{"name":"isOpen","type":"bool","indexed":false,"internalType":"bool"},{"name":"isOpeningWindow","type":"bool","indexed":false,"internalType":"bool"},{"name":"isClosingWindow","type":"bool","indexed":false,"internalType":"bool"}],"anonymous":false},{"type":"event","name":"OwnershipTransferred","inputs":[{"name":"oldOwner","type":"address","indexed":true,"internalType":"address"},{"name":"newOwner","type":"address","indexed":true,"internalType":"address"}],"anonymous":false},{"type":"event","name":"PriceUpdated","inputs":[{"name":"token","type":"address","indexed":true,"internalType":"address"},{"name":"price","type":"uint256","indexed":false,"internalType":"uint256"},{"name":"ts","type":"uint256","indexed":false,"internalType":"uint256"}],"anonymous":false},{"type":"event","name":"ResolutionDataSet","inputs":[{"name":"token","type":"address","indexed":true,"internalType":"address"},{"name":"expiry","type":"uint256","indexed":true,"internalType":"uint256"},{"name":"price","type":"uint256","indexed":false,"internalType":"uint256"},{"name":"high","type":"uint256","indexed":false,"internalType":"uint256"},{"name":"low","type":"uint256","indexed":false,"internalType":"uint256"}],"anonymous":false}],"bytecode":{"object":"0x60803460b557601f610e8938819003918201601f19168301916001600160401b0383118484101760b95780849260209460405283398101031260b557516001600160a01b0381169081900360b55780156082575f80546001600160a01b0319908116331790915560018054909116919091179055604051610dbb90816100ce8239f35b60405162461bcd60e51b815260206004820152600b60248201526a3d32b937903332b2b232b960a91b6044820152606490fd5b5f80fd5b634e487b7160e01b5f52604160045260245ffdfe60806040526004361015610011575f80fd5b5f3560e01c806304d745bb14610a815780630a6f93e614610a495780630f29bf2a146109cf57806316345f181461095a57806331a1b8f61461080557806344089de61461064e57806353084eff146106165780638da5cb5b146105ef578063987753151461044d578063a06f7cd5146101eb578063a788a716146101c3578063e8a89c76146101275763f2fde38b146100a8575f80fd5b34610123576020366003190112610123576100c1610b04565b5f546001600160a01b038116916100d9338414610b4b565b6001600160a01b03169182906100f0821515610b8e565b7f8be0079c531659141344cd1fd0a4f28419497f9722a3daafe3b4186f6b6457e05f80a36001600160a01b031916175f55005b5f80fd5b34610123576020366003190112610123576001600160a01b03610148610b04565b165f52600460205260a060405f206080610160610bfd565b915460ff811615159283815260ff8260081c16151580602083015260ff8360101c1615159182604082015260ff808560181c1615159485606084015260201c16151594859101526040519485526020850152604084015260608301526080820152f35b34610123575f366003190112610123576001546040516001600160a01b039091168152602090f35b346101235760a036600319011261012357610204610b04565b60243567ffffffffffffffff811161012357610224903690600401610b1a565b60449291923567ffffffffffffffff811161012357610247903690600401610b1a565b93909160643567ffffffffffffffff81116101235761026a903690600401610b1a565b9060843567ffffffffffffffff81116101235761028b903690600401610b1a565b97909260018060a01b03600154163314801561043a575b6102ae90989698610c1d565b6102b9828614610c61565b6102c4818614610c61565b6102cf898614610c61565b6001600160a01b03909516945f5b8581106102e657005b8088887fc48419c546596dd787a993d234f7afa62b12c438fdda50366e31447891ea03fa88888f8f87828f828d8f8260019f916103fe8f938f976104139b8f8f906104319f9b816103b08761040c9f6103a98f6104059f906103a28f808461037561038e8f60029f8b9061037561037a8f8c819e9661037561036d849e859a908691610c9f565b351515610cc3565b610c9f565b35610386858a8a610c9f565b351115610d10565b3561039a858585610c9f565b351015610d4b565b3599610c9f565b3593610c9f565b35916103ba610bc9565b94855260208501918252604085019283525f52600560205260405f206103e1888888610c9f565b355f5260205260405f209351845551600184015551910155610c9f565b359e610c9f565b3597610c9f565b3595610c9f565b35604051938493846040919493926060820195825260208201520152565b0390a3016102dd565b505f546001600160a01b031633146102a2565b346101235760a036600319011261012357610466610b04565b602435906044356064356084359160018060a01b0360015416331480156105dc575b61049190610c1d565b61049c811515610cc3565b6104a881831015610d10565b6104b481841115610d4b565b8282106105aa576001420180421161059657851161055d576105587fc48419c546596dd787a993d234f7afa62b12c438fdda50366e31447891ea03fa936104f9610bc9565b83815260026020820197868952604083019084825260018060a01b031698895f52600560205260405f208b5f5260205260405f209351845551600184015551910155604051938493846040919493926060820195825260208201520152565b0390a3005b60405162461bcd60e51b8152602060048201526011602482015270189d58dad95d081b9bdd0818db1bdcd959607a1b6044820152606490fd5b634e487b7160e01b5f52601160045260245ffd5b60405162461bcd60e51b815260206004820152600a60248201526968696768203c206c6f7760b01b6044820152606490fd5b505f546001600160a01b03163314610488565b34610123575f366003190112610123575f546040516001600160a01b039091168152602090f35b34610123576020366003190112610123576001600160a01b03610637610b04565b165f526002602052602060405f2054604051908152f35b346101235760e036600319011261012357610667610b04565b602435604435918215158093036101235760643592831515809403610123576084358015158091036101235760a435948515158096036101235760c43595861515809703610123577fb556fac599c3c70efb9ab1fa725ecace6c81cc48d1455f886607def065f3e0c060407f0eb154dbc146a8694f72e44ba9d082f12692e1fc44dcb78666747e51e76dd9889760609760018060a01b0360015416331480156107f2575b61071490610c1d565b61071f821515610cc3565b6001600160a01b03165f8181526002602090815284822084905560039052839020429055998a9461074e610bfd565b9189835263ff000000602084019289845262ff0000878601948c86528e8701928352608087019485528a5f526004602052885f20965115159564ff0000000061ff0089549351151560081b169151151560101b9451151560181b9651151560201b169664ff00000000199260ff871992169062ffffff1916171617169116179116171790558151908152426020820152a260405192835260208301526040820152a2005b505f546001600160a01b0316331461070b565b346101235760403660031901126101235760043567ffffffffffffffff811161012357610836903690600401610b1a565b60243567ffffffffffffffff811161012357610856903690600401610b1a565b9160018060a01b036001541633148015610947575b61087490610c1d565b61087f838214610c61565b5f5b81811061088a57005b8061089b61036d6001938787610c9f565b6108a6818686610c9f565b35828060a01b036108c06108bb84878b610c9f565b610cfc565b165f52600260205260405f2055818060a01b036108e16108bb83868a610c9f565b165f5260036020524260405f20556108fd6108bb828589610c9f565b7fb556fac599c3c70efb9ab1fa725ecace6c81cc48d1455f886607def065f3e0c0604061092b848989610c9f565b35928151938452426020850152858060a01b031692a201610881565b505f546001600160a01b0316331461086b565b34610123576020366003190112610123576001600160a01b0361097b610b04565b16805f52600260205260405f205490805f52600360205260405f2054155f146109b157506040905f195b82519182526020820152f35b5f52600360205260405f2054420390428211610596576040916109a5565b34610123576040366003190112610123576001600160a01b036109f0610b04565b165f52600560205260405f206024355f52602052608060405f20610a12610bc9565b6040825491828152600260018501549485602084015201549182910152604051928284526020840152604083015215156060820152f35b34610123576020366003190112610123576001600160a01b03610a6a610b04565b165f526003602052602060405f2054604051908152f35b3461012357602036600319011261012357610a9a610b04565b610aae60018060a01b035f54163314610b4b565b6001600160a01b0316610ac2811515610b8e565b600154816001600160a01b0382167f0bda08d9c3c56e1c62e167121dbbe7f8755655b764b9c59d9a2f74f7329b85fe5f80a36001600160a01b03191617600155005b600435906001600160a01b038216820361012357565b9181601f840112156101235782359167ffffffffffffffff8311610123576020808501948460051b01011161012357565b15610b5257565b60405162461bcd60e51b8152602060048201526014602482015273283934b1b2a332b2b21d103737ba1037bbb732b960611b6044820152606490fd5b15610b9557565b60405162461bcd60e51b815260206004820152600c60248201526b7a65726f206164647265737360a01b6044820152606490fd5b604051906060820182811067ffffffffffffffff821117610be957604052565b634e487b7160e01b5f52604160045260245ffd5b6040519060a0820182811067ffffffffffffffff821117610be957604052565b15610c2457565b60405162461bcd60e51b8152602060048201526015602482015274283934b1b2a332b2b21d103737ba103332b2b232b960591b6044820152606490fd5b15610c6857565b60405162461bcd60e51b815260206004820152600f60248201526e0d8cadccee8d040dad2e6dac2e8c6d608b1b6044820152606490fd5b9190811015610caf5760051b0190565b634e487b7160e01b5f52603260045260245ffd5b15610cca57565b60405162461bcd60e51b815260206004820152600a6024820152697a65726f20707269636560b01b6044820152606490fd5b356001600160a01b03811681036101235790565b15610d1757565b60405162461bcd60e51b815260206004820152600c60248201526b68696768203c20707269636560a01b6044820152606490fd5b15610d5257565b60405162461bcd60e51b815260206004820152600b60248201526a6c6f77203e20707269636560a81b6044820152606490fdfea26469706673582212200f9b2089437e27a3149b68e3ac199f7b3c7d0fa79bff0603affca8d2f852351564736f6c634300081b0033","linkReferences":{}},"methodIdentifiers":{"feeder()":"a788a716","getLatestPrice(address)":"16345f18","getMarketState(address)":"e8a89c76","getResolutionData(address,uint256)":"0f29bf2a","lastUpdated(address)":"0a6f93e6","latestPrice(address)":"53084eff","owner()":"8da5cb5b","setFeeder(address)":"04d745bb","setPrice(address,uint256,bool,bool,bool,bool,bool)":"44089de6","setPriceBatch(address[],uint256[])":"31a1b8f6","setResolutionData(address,uint256,uint256,uint256,uint256)":"98775315","setResolutionDataBatch(address,uint256[],uint256[],uint256[],uint256[])":"a06f7cd5","transferOwnership(address)":"f2fde38b"},"id":2}